{
  "_format": "hh-sol-artifact-1",
  "contractName": "Escrow",
  "sourceName": "contracts/Escrow.sol",
  "abi": [
    {
      "inputs": [
        {
          "internalType": "address",
          "name": "_rentalAgreementContractAddress",
          "type": "address"
        }
      ],
      "stateMutability": "nonpayable",
      "type": "constructor"
    },
    {
      "anonymous": false,
      "inputs": [
        {
          "indexed": true,
          "internalType": "uint256",
          "name": "rentalId",
          "type": "uint256"
        },
        {
          "indexed": true,
          "internalType": "address",
          "name": "tenant",
          "type": "address"
        },
        {
          "indexed": false,
          "internalType": "uint256",
          "name": "amount",
          "type": "uint256"
        }
      ],
      "name": "DepositReleased",
      "type": "event"
    },
    {
      "anonymous": false,
      "inputs": [
        {
          "indexed": true,
          "internalType": "uint256",
          "name": "rentalId",
          "type": "uint256"
        },
        {
          "indexed": false,
          "internalType": "uint256",
          "name": "rentAmount",
          "type": "uint256"
        },
        {
          "indexed": false,
          "internalType": "uint256",
          "name": "depositAmount",
          "type": "uint256"
        },
        {
          "indexed": true,
          "internalType": "address",
          "name": "payer",
          "type": "address"
        }
      ],
      "name": "FundsDeposited",
      "type": "event"
    },
    {
      "anonymous": false,
      "inputs": [
        {
          "indexed": true,
          "internalType": "uint256",
          "name": "rentalId",
          "type": "uint256"
        },
        {
          "indexed": true,
          "internalType": "address",
          "name": "landlord",
          "type": "address"
        },
        {
          "indexed": false,
          "internalType": "uint256",
          "name": "amount",
          "type": "uint256"
        }
      ],
      "name": "RentReleased",
      "type": "event"
    },
    {
      "anonymous": false,
      "inputs": [
        {
          "indexed": true,
          "internalType": "uint256",
          "name": "rentalId",
          "type": "uint256"
        },
        {
          "indexed": true,
          "internalType": "address",
          "name": "landlord",
          "type": "address"
        },
        {
          "indexed": false,
          "internalType": "uint256",
          "name": "amount",
          "type": "uint256"
        }
      ],
      "name": "RentWithdrawn",
      "type": "event"
    },
    {
      "anonymous": false,
      "inputs": [
        {
          "indexed": true,
          "internalType": "address",
          "name": "contractAddress",
          "type": "address"
        }
      ],
      "name": "RentalAgreementContractSet",
      "type": "event"
    },
    {
      "inputs": [
        {
          "internalType": "uint256",
          "name": "",
          "type": "uint256"
        }
      ],
      "name": "depositBalance",
      "outputs": [
        {
          "internalType": "uint256",
          "name": "",
          "type": "uint256"
        }
      ],
      "stateMutability": "view",
      "type": "function"
    },
    {
      "inputs": [
        {
          "internalType": "uint256",
          "name": "_rentalId",
          "type": "uint256"
        },
        {
          "internalType": "uint256",
          "name": "_amountForRent",
          "type": "uint256"
        },
        {
          "internalType": "uint256",
          "name": "_amountForDeposit",
          "type": "uint256"
        },
        {
          "internalType": "address",
          "name": "_payer",
          "type": "address"
        }
      ],
      "name": "depositFunds",
      "outputs": [],
      "stateMutability": "payable",
      "type": "function"
    },
    {
      "inputs": [
        {
          "internalType": "uint256",
          "name": "_rentalId",
          "type": "uint256"
        }
      ],
      "name": "getDepositBalance",
      "outputs": [
        {
          "internalType": "uint256",
          "name": "",
          "type": "uint256"
        }
      ],
      "stateMutability": "view",
      "type": "function"
    },
    {
      "inputs": [
        {
          "internalType": "uint256",
          "name": "_rentalId",
          "type": "uint256"
        }
      ],
      "name": "getRentBalance",
      "outputs": [
        {
          "internalType": "uint256",
          "name": "",
          "type": "uint256"
        }
      ],
      "stateMutability": "view",
      "type": "function"
    },
    {
      "inputs": [
        {
          "internalType": "uint256",
          "name": "_rentalId",
          "type": "uint256"
        },
        {
          "internalType": "address payable",
          "name": "_tenant",
          "type": "address"
        }
      ],
      "name": "releaseDepositToTenant",
      "outputs": [],
      "stateMutability": "nonpayable",
      "type": "function"
    },
    {
      "inputs": [
        {
          "internalType": "uint256",
          "name": "_rentalId",
          "type": "uint256"
        },
        {
          "internalType": "address payable",
          "name": "_landlord",
          "type": "address"
        },
        {
          "internalType": "uint256",
          "name": "_amount",
          "type": "uint256"
        }
      ],
      "name": "releaseRentToLandlord",
      "outputs": [],
      "stateMutability": "nonpayable",
      "type": "function"
    },
    {
      "inputs": [
        {
          "internalType": "uint256",
          "name": "",
          "type": "uint256"
        }
      ],
      "name": "rentBalance",
      "outputs": [
        {
          "internalType": "uint256",
          "name": "",
          "type": "uint256"
        }
      ],
      "stateMutability": "view",
      "type": "function"
    },
    {
      "inputs": [],
      "name": "rentalAgreementContract",
      "outputs": [
        {
          "internalType": "address",
          "name": "",
          "type": "address"
        }
      ],
      "stateMutability": "view",
      "type": "function"
    }
  ],
  "bytecode": "0x60803460d757601f61086b38819003918201601f19168301916001600160401b0383118484101760dc5780849260209460405283398101031260d757516001600160a01b0381169081900360d75760016000558015609e57600180546001600160a01b03191682179055604051907fc57b0fa689f951c6b5708b4cc8a4862ce560a11e72af7eedb576f67fb4ff8a64600080a261077890816100f38239f35b60405162461bcd60e51b81526020600482015260116024820152704553433a205a65726f206164647265737360781b6044820152606490fd5b600080fd5b634e487b7160e01b600052604160045260246000fdfe608080604052600436101561001357600080fd5b60003560e01c90816314c7b000146105945750806315d0eb99146103f35780631ec57634146101eb57806379e263a9146102175780638e68d925146101eb578063e03008e4146101bf578063e0c33cc7146101bf5763f0f6e86d1461007757600080fd5b346101ba5760403660031901126101ba576004356100936105b8565b6100a860018060a01b036001541633146105ce565b6100b06106ec565b6001600160a01b03169081156101755780600052600360205260406000205480156101305760207f27fd7b405d3b1cef830760908e4041d6c33a3e8fee51f248c99462d0d5550885918360005260038252600060408120556101226000808080858a5af161011c610638565b506106a0565b604051908152a36001600055005b60405162461bcd60e51b815260206004820152601a60248201527f4553433a204e6f206465706f73697420746f2072656c656173650000000000006044820152606490fd5b60405162461bcd60e51b815260206004820152601b60248201527f4553433a20496e76616c69642074656e616e74206164647265737300000000006044820152606490fd5b600080fd5b346101ba5760203660031901126101ba5760043560005260026020526020604060002054604051908152f35b346101ba5760203660031901126101ba5760043560005260036020526020604060002054604051908152f35b346101ba5760603660031901126101ba576004356102336105b8565b906044359161024d60018060a01b036001541633146105ce565b6102556106ec565b6001600160a01b03169182156103ae57816000526002602052806040600020541061036957801561032457816000526002602052604060002080549180830392831161030e577ff5e26fe9a8e31f0bb4931be55bbdeb0de56186c3267122ad3165b04abfb138c792602092556102d56000808080858a5af161011c610638565b84847fa8566a774dd16665ab06a07b15ed10733e2078b753bd2fd0c9be1271c6781c3d84604051858152a3604051908152a36001600055005b634e487b7160e01b600052601160045260246000fd5b60405162461bcd60e51b815260206004820152601c60248201527f4553433a20416d6f756e74206d75737420626520706f736974697665000000006044820152606490fd5b60405162461bcd60e51b815260206004820152601e60248201527f4553433a20496e73756666696369656e742072656e742062616c616e636500006044820152606490fd5b60405162461bcd60e51b815260206004820152601d60248201527f4553433a20496e76616c6964206c616e646c6f726420616464726573730000006044820152606490fd5b60803660031901126101ba576064356001600160a01b038116906004359060243590604435908490036101ba5761043560018060a01b036001541633146105ce565b61043d6106ec565b610447818361062b565b340361054f57806104af575b816040917fd7bb4e85e58179747951831b79b9cc71b83114b21ce69c8d050de177bff462b993610490575b82519182526020820152a36001600055005b846000526002602052826000206104a883825461062b565b905561047e565b82600052600360205260406000205461050a577fd7bb4e85e58179747951831b79b9cc71b83114b21ce69c8d050de177bff462b991604091846000526003602052826000206104ff82825461062b565b905591509150610453565b60405162461bcd60e51b815260206004820152601960248201527f4553433a204465706f73697420616c72656164792070616964000000000000006044820152606490fd5b60405162461bcd60e51b815260206004820152601760248201527f4553433a20496e636f7272656374204554482073656e740000000000000000006044820152606490fd5b346101ba5760003660031901126101ba576001546001600160a01b03168152602090f35b602435906001600160a01b03821682036101ba57565b156105d557565b60405162461bcd60e51b815260206004820152602860248201527f4553433a2043616c6c6572206e6f742052656e74616c41677265656d656e742060448201526718dbdb9d1c9858dd60c21b6064820152608490fd5b9190820180921161030e57565b3d1561069b573d9067ffffffffffffffff82116106855760405191601f8101601f19908116603f0116830167ffffffffffffffff8111848210176106855760405282523d6000602084013e565b634e487b7160e01b600052604160045260246000fd5b606090565b156106a757565b60405162461bcd60e51b815260206004820152601860248201527f4553433a20455448207472616e73666572206661696c656400000000000000006044820152606490fd5b6002600054146106fd576002600055565b60405162461bcd60e51b815260206004820152601f60248201527f5265656e7472616e637947756172643a207265656e7472616e742063616c6c006044820152606490fdfea2646970667358221220d6b21702bbd463166927362907226b4734fa98d837700bb860001a38c3f5634364736f6c634300081c0033",
  "linkReferences": {},
  "deployedLinkReferences": {}
}