{
  "_format": "hh-sol-artifact-1",
  "contractName": "MaintenanceRequests",
  "sourceName": "contracts/MaintenanceRequests.sol",
  "abi": [
    {
      "inputs": [
        {
          "internalType": "address",
          "name": "_rentalAgreement",
          "type": "address"
        }
      ],
      "stateMutability": "nonpayable",
      "type": "constructor"
    },
    {
      "anonymous": false,
      "inputs": [
        {
          "indexed": true,
          "internalType": "uint256",
          "name": "requestId",
          "type": "uint256"
        },
        {
          "indexed": false,
          "internalType": "uint256",
          "name": "actualCost",
          "type": "uint256"
        },
        {
          "indexed": false,
          "internalType": "uint256",
          "name": "completedTimestamp",
          "type": "uint256"
        }
      ],
      "name": "MaintenanceRequestCompleted",
      "type": "event"
    },
    {
      "anonymous": false,
      "inputs": [
        {
          "indexed": true,
          "internalType": "uint256",
          "name": "requestId",
          "type": "uint256"
        },
        {
          "indexed": true,
          "internalType": "uint256",
          "name": "propertyId",
          "type": "uint256"
        },
        {
          "indexed": true,
          "internalType": "uint256",
          "name": "rentalId",
          "type": "uint256"
        },
        {
          "indexed": false,
          "internalType": "address",
          "name": "tenant",
          "type": "address"
        },
        {
          "indexed": false,
          "internalType": "enum MaintenanceRequests.RequestPriority",
          "name": "priority",
          "type": "uint8"
        }
      ],
      "name": "MaintenanceRequestCreated",
      "type": "event"
    },
    {
      "anonymous": false,
      "inputs": [
        {
          "indexed": true,
          "internalType": "uint256",
          "name": "requestId",
          "type": "uint256"
        },
        {
          "indexed": false,
          "internalType": "enum MaintenanceRequests.RequestStatus",
          "name": "status",
          "type": "uint8"
        },
        {
          "indexed": false,
          "internalType": "string",
          "name": "resolution",
          "type": "string"
        }
      ],
      "name": "MaintenanceRequestUpdated",
      "type": "event"
    },
    {
      "inputs": [
        {
          "internalType": "uint256",
          "name": "_requestId",
          "type": "uint256"
        },
        {
          "internalType": "uint256",
          "name": "_actualCost",
          "type": "uint256"
        }
      ],
      "name": "completeRequest",
      "outputs": [],
      "stateMutability": "nonpayable",
      "type": "function"
    },
    {
      "inputs": [
        {
          "internalType": "uint256",
          "name": "_rentalId",
          "type": "uint256"
        },
        {
          "internalType": "string",
          "name": "_description",
          "type": "string"
        },
        {
          "internalType": "string",
          "name": "_ipfsPhotosHash",
          "type": "string"
        },
        {
          "internalType": "enum MaintenanceRequests.RequestPriority",
          "name": "_priority",
          "type": "uint8"
        }
      ],
      "name": "createRequest",
      "outputs": [
        {
          "internalType": "uint256",
          "name": "",
          "type": "uint256"
        }
      ],
      "stateMutability": "nonpayable",
      "type": "function"
    },
    {
      "inputs": [
        {
          "internalType": "uint256",
          "name": "_requestId",
          "type": "uint256"
        }
      ],
      "name": "getRequest",
      "outputs": [
        {
          "components": [
            {
              "internalType": "uint256",
              "name": "requestId",
              "type": "uint256"
            },
            {
              "internalType": "uint256",
              "name": "rentalId",
              "type": "uint256"
            },
            {
              "internalType": "uint256",
              "name": "propertyId",
              "type": "uint256"
            },
            {
              "internalType": "address",
              "name": "tenant",
              "type": "address"
            },
            {
              "internalType": "address",
              "name": "landlord",
              "type": "address"
            },
            {
              "internalType": "string",
              "name": "description",
              "type": "string"
            },
            {
              "internalType": "string",
              "name": "ipfsPhotosHash",
              "type": "string"
            },
            {
              "internalType": "uint256",
              "name": "timestamp",
              "type": "uint256"
            },
            {
              "internalType": "enum MaintenanceRequests.RequestStatus",
              "name": "status",
              "type": "uint8"
            },
            {
              "internalType": "enum MaintenanceRequests.RequestPriority",
              "name": "priority",
              "type": "uint8"
            },
            {
              "internalType": "uint256",
              "name": "estimatedCost",
              "type": "uint256"
            },
            {
              "internalType": "uint256",
              "name": "actualCost",
              "type": "uint256"
            },
            {
              "internalType": "string",
              "name": "resolution",
              "type": "string"
            },
            {
              "internalType": "uint256",
              "name": "completedTimestamp",
              "type": "uint256"
            }
          ],
          "internalType": "struct MaintenanceRequests.MaintenanceRequest",
          "name": "",
          "type": "tuple"
        }
      ],
      "stateMutability": "view",
      "type": "function"
    },
    {
      "inputs": [
        {
          "internalType": "uint256",
          "name": "_propertyId",
          "type": "uint256"
        }
      ],
      "name": "getRequestsByProperty",
      "outputs": [
        {
          "internalType": "uint256[]",
          "name": "",
          "type": "uint256[]"
        }
      ],
      "stateMutability": "view",
      "type": "function"
    },
    {
      "inputs": [
        {
          "internalType": "uint256",
          "name": "_rentalId",
          "type": "uint256"
        }
      ],
      "name": "getRequestsByRental",
      "outputs": [
        {
          "internalType": "uint256[]",
          "name": "",
          "type": "uint256[]"
        }
      ],
      "stateMutability": "view",
      "type": "function"
    },
    {
      "inputs": [
        {
          "internalType": "address",
          "name": "_tenant",
          "type": "address"
        }
      ],
      "name": "getRequestsByTenant",
      "outputs": [
        {
          "internalType": "uint256[]",
          "name": "",
          "type": "uint256[]"
        }
      ],
      "stateMutability": "view",
      "type": "function"
    },
    {
      "inputs": [],
      "name": "rentalAgreement",
      "outputs": [
        {
          "internalType": "contract RentalAgreement",
          "name": "",
          "type": "address"
        }
      ],
      "stateMutability": "view",
      "type": "function"
    },
    {
      "inputs": [
        {
          "internalType": "uint256",
          "name": "",
          "type": "uint256"
        }
      ],
      "name": "requests",
      "outputs": [
        {
          "internalType": "uint256",
          "name": "requestId",
          "type": "uint256"
        },
        {
          "internalType": "uint256",
          "name": "rentalId",
          "type": "uint256"
        },
        {
          "internalType": "uint256",
          "name": "propertyId",
          "type": "uint256"
        },
        {
          "internalType": "address",
          "name": "tenant",
          "type": "address"
        },
        {
          "internalType": "address",
          "name": "landlord",
          "type": "address"
        },
        {
          "internalType": "string",
          "name": "description",
          "type": "string"
        },
        {
          "internalType": "string",
          "name": "ipfsPhotosHash",
          "type": "string"
        },
        {
          "internalType": "uint256",
          "name": "timestamp",
          "type": "uint256"
        },
        {
          "internalType": "enum MaintenanceRequests.RequestStatus",
          "name": "status",
          "type": "uint8"
        },
        {
          "internalType": "enum MaintenanceRequests.RequestPriority",
          "name": "priority",
          "type": "uint8"
        },
        {
          "internalType": "uint256",
          "name": "estimatedCost",
          "type": "uint256"
        },
        {
          "internalType": "uint256",
          "name": "actualCost",
          "type": "uint256"
        },
        {
          "internalType": "string",
          "name": "resolution",
          "type": "string"
        },
        {
          "internalType": "uint256",
          "name": "completedTimestamp",
          "type": "uint256"
        }
      ],
      "stateMutability": "view",
      "type": "function"
    },
    {
      "inputs": [
        {
          "internalType": "uint256",
          "name": "",
          "type": "uint256"
        },
        {
          "internalType": "uint256",
          "name": "",
          "type": "uint256"
        }
      ],
      "name": "requestsByProperty",
      "outputs": [
        {
          "internalType": "uint256",
          "name": "",
          "type": "uint256"
        }
      ],
      "stateMutability": "view",
      "type": "function"
    },
    {
      "inputs": [
        {
          "internalType": "uint256",
          "name": "",
          "type": "uint256"
        },
        {
          "internalType": "uint256",
          "name": "",
          "type": "uint256"
        }
      ],
      "name": "requestsByRental",
      "outputs": [
        {
          "internalType": "uint256",
          "name": "",
          "type": "uint256"
        }
      ],
      "stateMutability": "view",
      "type": "function"
    },
    {
      "inputs": [
        {
          "internalType": "address",
          "name": "",
          "type": "address"
        },
        {
          "internalType": "uint256",
          "name": "",
          "type": "uint256"
        }
      ],
      "name": "requestsByTenant",
      "outputs": [
        {
          "internalType": "uint256",
          "name": "",
          "type": "uint256"
        }
      ],
      "stateMutability": "view",
      "type": "function"
    },
    {
      "inputs": [
        {
          "internalType": "uint256",
          "name": "_requestId",
          "type": "uint256"
        },
        {
          "internalType": "enum MaintenanceRequests.RequestStatus",
          "name": "_newStatus",
          "type": "uint8"
        },
        {
          "internalType": "string",
          "name": "_resolution",
          "type": "string"
        },
        {
          "internalType": "uint256",
          "name": "_estimatedCost",
          "type": "uint256"
        }
      ],
      "name": "updateRequestStatus",
      "outputs": [],
      "stateMutability": "nonpayable",
      "type": "function"
    }
  ],
  "bytecode": "0x608034607157601f61168338819003918201601f19168301916001600160401b03831184841017607657808492602094604052833981010312607157516001600160a01b03811690819003607157600160005560018060a01b031960015416176001556040516115f6908161008d8239f35b600080fd5b634e487b7160e01b600052604160045260246000fdfe6080604052600436101561001257600080fd5b60003560e01c80632d6e328a14610f155780633495f71514610e9e5780633d0ffcf614610e755780634d8cf24d14610e445780635467254c14610ddb578063604103e91461062057806376c3060b146105ef57806381d12c58146104bf578063c58343ef14610260578063deaee759146101e7578063fa48f38e146100fe5763fe7ff29e146100a057600080fd5b346100f95760403660031901126100f9576100b9611217565b6001600160a01b03166000908152600660205260409020805460243591908210156100f9576020916100ea9161127d565b90549060031b1c604051908152f35b600080fd5b346100f95761010c36611267565b61011461156a565b816000526003602052604060002061013960018060a01b0360048301541633146113e1565b6008810191825491600260ff8416610150816113ca565b036101a2577f8ae371e5f19d7432b563b9225e00f703504ef05c1086af0651fc43c2074a2dbb93600360409460ff191617905581600a820155600c429101558151908152426020820152a26001600055005b60405162461bcd60e51b815260206004820152601760248201527f52657175657374206e6f7420696e2070726f67726573730000000000000000006044820152606490fd5b346100f95760203660031901126100f9576004356000526005602052604060002060405190816020825491828152019160005260206000209060005b81811061024a576102468561023a8187038261119e565b6040519182918261122d565b0390f35b8254845260209093019260019283019201610223565b346100f95760203660031901126100f95760405161027d81611181565b60008152602081016000905260408101600090526060810160009052608081016000905260a081016060905260c081016060905260e08101600090526101008101600090526101208101600090526101408101600090526101608101600090526101808101606090526101a001600090526004356000526003602052604060002060405161030a81611181565b8154815260018201546020820190815260028301546040830190815260038401546001600160a01b039081166060850190815260048601549091166080850190815292949192919061035e600583016112e5565b60a0860190815292610372600684016112e5565b60c0870190815260078401549460e0880195865260088501549160ff8316916101008a01926103a0816113ca565b83526101208a019360081c60ff166103b89085611524565b6009870154946101408b01958652600a880154966101608c01978852600b89016103e1906112e5565b986101808d01998a52600c01549a6101a08d019b8c52604051809e819e602083525160208301525190604001525160608d0152600160a01b6001900390511660808c0152600160a01b6001900390511660a08b01525160c08a016101c090526101e08a0161044e91611389565b9051898203601f190160e08b01526104669190611389565b955161010089015251610478816113ca565b61012088015251610140870161048d916113d4565b516101608601525161018085015251838203601f19016101a08501526104b39190611389565b90516101c08301520390f35b346100f95760203660031901126100f957600435600052600360205260406000208054600182015491600281015490600160a01b60019003600382015416600160a01b60019003600483015416906005830161051a906112e5565b91610527600685016112e5565b60078501549360088601549160ff831691600988015494600a89015496600b8a01610551906112e5565b99600c01549a6040519d8e809e81526020015260408d015260608c015260808b015260a08a016101c090526101c08a0161058a91611389565b89810360c08b015261059b91611389565b9460e08901526105aa816113ca565b61010088015261012087019060081c60ff16906105c6916113d4565b6101408601526101608501528381036101808501526105e491611389565b906101a08301520390f35b346100f9576105fd36611267565b906000526004602052604060002080548210156100f9576020916100ea9161127d565b346100f95760803660031901126100f95760243567ffffffffffffffff81116100f9576106519036906004016111c0565b60443567ffffffffffffffff81116100f9576106719036906004016111c0565b600460643510156100f9576001546040516305c222cd60e21b815260048035908201529061016090829060249082906001600160a01b03165afa908115610d7a57600091610dbc575b50604001516001600160a01b03163303610d86576024916106d961156a565b6001546040516305c222cd60e21b81526004803590820152936101609185919082906001600160a01b03165afa928315610d7a57600093610d49575b506001610120840151610727816113ca565b610730816113ca565b03610d1057600254916000198314610cfa576001830160025560208401519160018060a01b036060860151166040519361076985611181565b60018601855260043560208601526040850152336060850152608084015260a083015260c08201524260e082015260006101008201526107af6064356101208301611524565b600061014082015260006101608201526020926040516107cf858261119e565b60008082526101808401919091526101a0830181905260018481018252600380875260409283902085518155602086015192810192909255918401516002820155606084015191810180546001600160a01b039384166001600160a01b03199182161790915560808501516004830180549190941691161790915560a083015180519067ffffffffffffffff8211610c1c57819061087060058501546112ab565b601f8111610ca9575b508790601f8311600114610c3d57600092610c32575b50508160011b916000199060031b1c19161760058201555b60c083015180519067ffffffffffffffff8211610c1c5781906108cd60068501546112ab565b601f8111610bcb575b508790601f8311600114610b5f57600092610b54575b50508160011b916000199060031b1c19161760068201555b60e08301516007820155600881019261092b610100820151610925816113ca565b8561141e565b610120810151936004851015610b3e5760009461ff0082549160081b169061ff0019161790556101408101516009830155610160810151600a830155600b820161018082015180519067ffffffffffffffff8211610b2a5761098d83546112ab565b601f8111610ae7575b508890601f8311600114610a7757936020959383600c946101a0948b9a9860019c92610a6c575b5050600019600383901b1c1916908a1b1790555b0151910155818101518352600486526109ef84860160408520611530565b600435835260058652610a0784860160408520611530565b33835260068652610a1d84860160408520611530565b015160405190338252610a348683016064356113d4565b600435917f0358223734323c68bb0d809b766aec8fee297ce7bb6ff038d6cf146b39ae4bad604086880192a455600160405191018152f35b015190508d806109bd565b8388528988209190601f198416895b8c828210610ad1575050846101a09460019b9a989460209a9894600c988e9510610ab8575b505050811b0190556109d1565b015160001960f88460031b161c191690558d8080610aab565b6001859682939686015181550195019301610a86565b838852898820601f840160051c8101918b8510610b20575b601f0160051c01905b818110610b155750610996565b888155600101610b08565b9091508190610aff565b634e487b7160e01b87526041600452602487fd5b634e487b7160e01b600052602160045260246000fd5b0151905087806108ec565b6006850160009081528981209350601f198516905b8a828210610bb5575050908460019594939210610b9c575b505050811b016006820155610904565b015160001960f88460031b161c19169055878080610b8c565b6001859682939686015181550195019301610b74565b9091506006840160005287600020601f840160051c8101898510610c15575b90849392915b601f830160051c82018110610c065750506108d6565b60008155859450600101610bf0565b5080610bea565b634e487b7160e01b600052604160045260246000fd5b01519050878061088f565b6005850160009081528981209350601f198516905b8a828210610c93575050908460019594939210610c7a575b505050811b0160058201556108a7565b015160001960f88460031b161c19169055878080610c6a565b6001859682939686015181550195019301610c52565b9091506005840160005287600020601f840160051c8101898510610cf3575b90849392915b601f830160051c82018110610ce4575050610879565b60008155859450600101610cce565b5080610cc8565b634e487b7160e01b600052601160045260246000fd5b60405162461bcd60e51b815260206004820152601160248201527052656e74616c206e6f742061637469766560781b6044820152606490fd5b610d6c9193506101603d8111610d73575b610d64818361119e565b81019061144a565b9183610715565b503d610d5a565b6040513d6000823e3d90fd5b60405162461bcd60e51b815260206004820152600e60248201526d139bdd081d1a19481d195b985b9d60921b6044820152606490fd5b610dd591506101603d8111610d7357610d64818361119e565b836106ba565b346100f95760203660031901126100f9576004356000526004602052604060002060405190816020825491828152019160005260206000209060005b818110610e2e576102468561023a8187038261119e565b8254845260209093019260019283019201610e17565b346100f957610e5236611267565b906000526005602052604060002080548210156100f9576020916100ea9161127d565b346100f95760003660031901126100f9576001546040516001600160a01b039091168152602090f35b346100f95760203660031901126100f9576001600160a01b03610ebf611217565b166000526006602052604060002060405190816020825491828152019160005260206000209060005b818110610eff576102468561023a8187038261119e565b8254845260209093019260019283019201610ee8565b346100f95760803660031901126100f95760243560043560058210156100f95760443567ffffffffffffffff81116100f957610f559036906004016111c0565b60643592610f6161156a565b826000526003602052604060002093610f8760018060a01b0360048701541633146113e1565b60088501600360ff825416610f9b816113ca565b1461113c5782610faa9161141e565b825194600b810167ffffffffffffffff8711610c1c57610fca81546112ab565b601f81116110f4575b50602096601f811160011461106f57807f5dfea01b997393c30d7ac02a3e4a6ea872669862115d00105f6e0e280c70a3c59798600091611064575b508160011b916000199060031b1c19161790555b81611059575b505061104f604051928261103c85946113ca565b8352604060208401526040830190611389565b0390a26001600055005b600901558480611028565b90508601518961100e565b601f19811682600052886000209060005b8181106110dc5750907f5dfea01b997393c30d7ac02a3e4a6ea872669862115d00105f6e0e280c70a3c598998360019493106110c3575b5050811b019055611022565b88015160001960f88460031b161c1916905589806110b7565b888b0151835560209a8b019a60019093019201611080565b816000526020600020601f890160051c81019160208a10611132575b601f0160051c01905b8181106111265750610fd3565b60008155600101611119565b9091508190611110565b60405162461bcd60e51b815260206004820152601960248201527f5265717565737420616c726561647920636f6d706c65746564000000000000006044820152606490fd5b6101c0810190811067ffffffffffffffff821117610c1c57604052565b90601f8019910116810190811067ffffffffffffffff821117610c1c57604052565b81601f820112156100f95780359067ffffffffffffffff8211610c1c57604051926111f5601f8401601f19166020018561119e565b828452602083830101116100f957816000926020809301838601378301015290565b600435906001600160a01b03821682036100f957565b602060408183019282815284518094520192019060005b8181106112515750505090565b8251845260209384019390920191600101611244565b60409060031901126100f9576004359060243590565b80548210156112955760005260206000200190600090565b634e487b7160e01b600052603260045260246000fd5b90600182811c921680156112db575b60208310146112c557565b634e487b7160e01b600052602260045260246000fd5b91607f16916112ba565b90604051918260008254926112f9846112ab565b80845293600181169081156113675750600114611320575b5061131e9250038361119e565b565b90506000929192526020600020906000915b81831061134b57505090602061131e9282010138611311565b6020919350806001915483858901015201910190918492611332565b90506020925061131e94915060ff191682840152151560051b82010138611311565b919082519283825260005b8481106113b5575050826000602080949584010152601f8019910116010190565b80602080928401015182828601015201611394565b60051115610b3e57565b906004821015610b3e5752565b156113e857565b60405162461bcd60e51b815260206004820152600e60248201526d139bdd08185d5d1a1bdc9a5e995960921b6044820152606490fd5b90611428816113ca565b60ff80198354169116179055565b51906001600160a01b03821682036100f957565b90816101609103126100f957600060405191610160830183811067ffffffffffffffff82111761151057604052805183526020810151602084015261149160408201611436565b60408401526114a260608201611436565b60608401526080810151608084015260a081015160a084015260c081015160c084015260e081015160e0840152610100810151610100840152610120810151600581101561150c576101208401526101400151908115158203611509575061014082015290565b80fd5b8280fd5b634e487b7160e01b83526041600452602483fd5b6004821015610b3e5752565b805468010000000000000000811015610c1c576115529160018201815561127d565b819291549060031b91821b91600019901b1916179055565b60026000541461157b576002600055565b60405162461bcd60e51b815260206004820152601f60248201527f5265656e7472616e637947756172643a207265656e7472616e742063616c6c006044820152606490fdfea264697066735822122064bcc0b67d63ddb7ea6b65e217cec80c3fd2c9d8ea595126f845ea1bab92e4fd64736f6c634300081c0033",
  "linkReferences": {},
  "deployedLinkReferences": {}
}