{
  "_format": "hh-sol-artifact-1",
  "contractName": "PropertyListing",
  "sourceName": "contracts/PropertyListing.sol",
  "abi": [
    {
      "inputs": [],
      "stateMutability": "nonpayable",
      "type": "constructor"
    },
    {
      "anonymous": false,
      "inputs": [
        {
          "indexed": true,
          "internalType": "uint256",
          "name": "propertyId",
          "type": "uint256"
        },
        {
          "indexed": false,
          "internalType": "bool",
          "name": "isAvailable",
          "type": "bool"
        },
        {
          "indexed": true,
          "internalType": "address",
          "name": "tenant",
          "type": "address"
        },
        {
          "indexed": false,
          "internalType": "uint256",
          "name": "rentalId",
          "type": "uint256"
        }
      ],
      "name": "PropertyAvailabilityChanged",
      "type": "event"
    },
    {
      "anonymous": false,
      "inputs": [
        {
          "indexed": true,
          "internalType": "uint256",
          "name": "propertyId",
          "type": "uint256"
        },
        {
          "indexed": true,
          "internalType": "address",
          "name": "owner",
          "type": "address"
        },
        {
          "indexed": false,
          "internalType": "string",
          "name": "location",
          "type": "string"
        },
        {
          "indexed": false,
          "internalType": "uint256",
          "name": "pricePerMonth",
          "type": "uint256"
        },
        {
          "indexed": false,
          "internalType": "uint256",
          "name": "securityDeposit",
          "type": "uint256"
        },
        {
          "indexed": false,
          "internalType": "string",
          "name": "ipfsMetadataHash",
          "type": "string"
        }
      ],
      "name": "PropertyListed",
      "type": "event"
    },
    {
      "anonymous": false,
      "inputs": [
        {
          "indexed": true,
          "internalType": "uint256",
          "name": "propertyId",
          "type": "uint256"
        }
      ],
      "name": "PropertyUnlisted",
      "type": "event"
    },
    {
      "anonymous": false,
      "inputs": [
        {
          "indexed": true,
          "internalType": "uint256",
          "name": "propertyId",
          "type": "uint256"
        },
        {
          "indexed": false,
          "internalType": "string",
          "name": "location",
          "type": "string"
        },
        {
          "indexed": false,
          "internalType": "uint256",
          "name": "pricePerMonth",
          "type": "uint256"
        },
        {
          "indexed": false,
          "internalType": "uint256",
          "name": "securityDeposit",
          "type": "uint256"
        },
        {
          "indexed": false,
          "internalType": "string",
          "name": "ipfsMetadataHash",
          "type": "string"
        },
        {
          "indexed": false,
          "internalType": "uint8",
          "name": "minRentalPeriodMonths",
          "type": "uint8"
        },
        {
          "indexed": false,
          "internalType": "uint256",
          "name": "availableFromTimestamp",
          "type": "uint256"
        }
      ],
      "name": "PropertyUpdated",
      "type": "event"
    },
    {
      "anonymous": false,
      "inputs": [
        {
          "indexed": true,
          "internalType": "address",
          "name": "contractAddress",
          "type": "address"
        }
      ],
      "name": "RentalAgreementContractSet",
      "type": "event"
    },
    {
      "inputs": [
        {
          "internalType": "address",
          "name": "_owner",
          "type": "address"
        }
      ],
      "name": "getOwnerProperties",
      "outputs": [
        {
          "internalType": "uint256[]",
          "name": "",
          "type": "uint256[]"
        }
      ],
      "stateMutability": "view",
      "type": "function"
    },
    {
      "inputs": [
        {
          "internalType": "uint256",
          "name": "_propertyId",
          "type": "uint256"
        }
      ],
      "name": "getProperty",
      "outputs": [
        {
          "components": [
            {
              "internalType": "uint256",
              "name": "id",
              "type": "uint256"
            },
            {
              "internalType": "address",
              "name": "owner",
              "type": "address"
            },
            {
              "internalType": "string",
              "name": "location",
              "type": "string"
            },
            {
              "internalType": "uint256",
              "name": "pricePerMonth",
              "type": "uint256"
            },
            {
              "internalType": "uint256",
              "name": "securityDeposit",
              "type": "uint256"
            },
            {
              "internalType": "uint8",
              "name": "bedrooms",
              "type": "uint8"
            },
            {
              "internalType": "uint8",
              "name": "bathrooms",
              "type": "uint8"
            },
            {
              "internalType": "uint16",
              "name": "areaSqMeters",
              "type": "uint16"
            },
            {
              "internalType": "uint256",
              "name": "availableFromTimestamp",
              "type": "uint256"
            },
            {
              "internalType": "uint8",
              "name": "minRentalPeriodMonths",
              "type": "uint8"
            },
            {
              "internalType": "string",
              "name": "ipfsMetadataHash",
              "type": "string"
            },
            {
              "internalType": "bool",
              "name": "isListed",
              "type": "bool"
            },
            {
              "internalType": "bool",
              "name": "isAvailable",
              "type": "bool"
            },
            {
              "internalType": "address",
              "name": "currentTenant",
              "type": "address"
            },
            {
              "internalType": "uint256",
              "name": "currentRentalId",
              "type": "uint256"
            }
          ],
          "internalType": "struct PropertyListing.Property",
          "name": "",
          "type": "tuple"
        }
      ],
      "stateMutability": "view",
      "type": "function"
    },
    {
      "inputs": [],
      "name": "getTotalProperties",
      "outputs": [
        {
          "internalType": "uint256",
          "name": "",
          "type": "uint256"
        }
      ],
      "stateMutability": "view",
      "type": "function"
    },
    {
      "inputs": [
        {
          "internalType": "string",
          "name": "_location",
          "type": "string"
        },
        {
          "internalType": "uint256",
          "name": "_pricePerMonth",
          "type": "uint256"
        },
        {
          "internalType": "uint256",
          "name": "_securityDeposit",
          "type": "uint256"
        },
        {
          "internalType": "uint8",
          "name": "_bedrooms",
          "type": "uint8"
        },
        {
          "internalType": "uint8",
          "name": "_bathrooms",
          "type": "uint8"
        },
        {
          "internalType": "uint16",
          "name": "_areaSqMeters",
          "type": "uint16"
        },
        {
          "internalType": "uint256",
          "name": "_availableFromTimestamp",
          "type": "uint256"
        },
        {
          "internalType": "uint8",
          "name": "_minRentalPeriodMonths",
          "type": "uint8"
        },
        {
          "internalType": "string",
          "name": "_ipfsMetadataHash",
          "type": "string"
        }
      ],
      "name": "listProperty",
      "outputs": [
        {
          "internalType": "uint256",
          "name": "",
          "type": "uint256"
        }
      ],
      "stateMutability": "nonpayable",
      "type": "function"
    },
    {
      "inputs": [
        {
          "internalType": "uint256",
          "name": "_propertyId",
          "type": "uint256"
        }
      ],
      "name": "markAsAvailable",
      "outputs": [],
      "stateMutability": "nonpayable",
      "type": "function"
    },
    {
      "inputs": [
        {
          "internalType": "uint256",
          "name": "_propertyId",
          "type": "uint256"
        },
        {
          "internalType": "address",
          "name": "_tenant",
          "type": "address"
        },
        {
          "internalType": "uint256",
          "name": "_rentalId",
          "type": "uint256"
        }
      ],
      "name": "markAsRented",
      "outputs": [],
      "stateMutability": "nonpayable",
      "type": "function"
    },
    {
      "inputs": [
        {
          "internalType": "uint256",
          "name": "",
          "type": "uint256"
        }
      ],
      "name": "properties",
      "outputs": [
        {
          "internalType": "uint256",
          "name": "id",
          "type": "uint256"
        },
        {
          "internalType": "address",
          "name": "owner",
          "type": "address"
        },
        {
          "internalType": "string",
          "name": "location",
          "type": "string"
        },
        {
          "internalType": "uint256",
          "name": "pricePerMonth",
          "type": "uint256"
        },
        {
          "internalType": "uint256",
          "name": "securityDeposit",
          "type": "uint256"
        },
        {
          "internalType": "uint8",
          "name": "bedrooms",
          "type": "uint8"
        },
        {
          "internalType": "uint8",
          "name": "bathrooms",
          "type": "uint8"
        },
        {
          "internalType": "uint16",
          "name": "areaSqMeters",
          "type": "uint16"
        },
        {
          "internalType": "uint256",
          "name": "availableFromTimestamp",
          "type": "uint256"
        },
        {
          "internalType": "uint8",
          "name": "minRentalPeriodMonths",
          "type": "uint8"
        },
        {
          "internalType": "string",
          "name": "ipfsMetadataHash",
          "type": "string"
        },
        {
          "internalType": "bool",
          "name": "isListed",
          "type": "bool"
        },
        {
          "internalType": "bool",
          "name": "isAvailable",
          "type": "bool"
        },
        {
          "internalType": "address",
          "name": "currentTenant",
          "type": "address"
        },
        {
          "internalType": "uint256",
          "name": "currentRentalId",
          "type": "uint256"
        }
      ],
      "stateMutability": "view",
      "type": "function"
    },
    {
      "inputs": [
        {
          "internalType": "address",
          "name": "",
          "type": "address"
        },
        {
          "internalType": "uint256",
          "name": "",
          "type": "uint256"
        }
      ],
      "name": "propertiesByOwner",
      "outputs": [
        {
          "internalType": "uint256",
          "name": "",
          "type": "uint256"
        }
      ],
      "stateMutability": "view",
      "type": "function"
    },
    {
      "inputs": [],
      "name": "rentalAgreementContract",
      "outputs": [
        {
          "internalType": "address",
          "name": "",
          "type": "address"
        }
      ],
      "stateMutability": "view",
      "type": "function"
    },
    {
      "inputs": [
        {
          "internalType": "address",
          "name": "_contractAddress",
          "type": "address"
        }
      ],
      "name": "setRentalAgreementContract",
      "outputs": [],
      "stateMutability": "nonpayable",
      "type": "function"
    },
    {
      "inputs": [
        {
          "internalType": "uint256",
          "name": "_propertyId",
          "type": "uint256"
        }
      ],
      "name": "unlistProperty",
      "outputs": [],
      "stateMutability": "nonpayable",
      "type": "function"
    },
    {
      "inputs": [
        {
          "internalType": "uint256",
          "name": "_propertyId",
          "type": "uint256"
        },
        {
          "internalType": "string",
          "name": "_location",
          "type": "string"
        },
        {
          "internalType": "uint256",
          "name": "_pricePerMonth",
          "type": "uint256"
        },
        {
          "internalType": "uint256",
          "name": "_securityDeposit",
          "type": "uint256"
        },
        {
          "internalType": "uint8",
          "name": "_bedrooms",
          "type": "uint8"
        },
        {
          "internalType": "uint8",
          "name": "_bathrooms",
          "type": "uint8"
        },
        {
          "internalType": "uint16",
          "name": "_areaSqMeters",
          "type": "uint16"
        },
        {
          "internalType": "uint256",
          "name": "_availableFromTimestamp",
          "type": "uint256"
        },
        {
          "internalType": "uint8",
          "name": "_minRentalPeriodMonths",
          "type": "uint8"
        },
        {
          "internalType": "string",
          "name": "_ipfsMetadataHash",
          "type": "string"
        }
      ],
      "name": "updateProperty",
      "outputs": [],
      "stateMutability": "nonpayable",
      "type": "function"
    }
  ],
  "bytecode": "0x60808060405234601a57600160005561188e90816100208239f35b600080fdfe6080604052600436101561001257600080fd5b60003560e01c806305dfc1d5146114b557806314c7b0001461148c57806317aaf5ed1461146e5780631fb30d0a146113d55780632a158169146112c457806332665ffb146110255780634b31a6a314610b8a578063841ad8b914610a7c578063baac39fa146103fe578063cb64489714610344578063e84394a1146101c35763f7b10808146100a057600080fd5b346101be5760203660031901126101be576004356000908152600360205260409020805460018201546001600160a01b0316916100df60028201611673565b600382015460048301549060058401546006850154600786015460ff16916008870161010a90611673565b94600988015497600a0154966040519a8b9a8b5260208b015260408a016101e090526101e08a0161013a91611552565b9460608a0152608089015260ff811660a08901528060081c60ff1660c089015260101c61ffff1660e088015261010087015261012086015284810361014086015261018491611552565b60ff8084161515610160860152600884901c16151561018085015260109290921c6001600160a01b03166101a08401526101c08301520390f35b600080fd5b346101be5760603660031901126101be576024356001600160a01b03811690600435908281036101be57604435906101f9611802565b61020e60018060a01b03600254163314611717565b826000526003602052604060002091600983019182549260ff841680610337575b156102e657600685015442106102a157610100600160b01b031990931660109190911b62010000600160b01b0316179091557f8d7bd457707aae1d4bef0d6e2872f460041993e273149d3fada0214366ddff5291604091908190600a0155815190600082526020820152a36001600055005b60405162461bcd60e51b815260206004820152601e60248201527f504c3a2050726f7065727479206e6f742079657420617661696c61626c6500006044820152606490fd5b60405162461bcd60e51b815260206004820152602360248201527f504c3a2050726f7065727479206e6f7420617661696c61626c6520666f722072604482015262195b9d60ea1b6064820152608490fd5b5060ff8460081c1661022f565b346101be5760203660031901126101be576001600160a01b0361036561150e565b16600052600460205260406000206040518060208354918281520190819360005260206000209060005b8181106103e857505050816103a59103826115b0565b6040519182916020830190602084525180915260408301919060005b8181106103cf575050500390f35b82518452859450602093840193909201916001016103c1565b825484526020909301926001928301920161038f565b346101be576101203660031901126101be5760043567ffffffffffffffff81116101be576104309036906004016115d2565b602435604435906064359060ff82168092036101be5761044e611629565b9260a4359361ffff85168095036101be5760e4359460ff86168096036101be576101043567ffffffffffffffff81116101be5761048f9036906004016115d2565b94610498611802565b8415610a3f5783156109fa578751156109bd578615610978576001546000198114610962576001019687600155604051926104d284611593565b88845260ff602085019533875260408601948c865289606088015288608088015260a08701521660c085015260e084015260c435610100840152610120830152856101408301526001610160830152600161018083015260006101a083015260006101c083015286600052600360205260406000209282518455600184019060018060a01b039051166bffffffffffffffffffffffff60a01b8254161790555180519067ffffffffffffffff82116107bc5781906105936002860154611639565b601f811161090f575b50602090601f831160011461089e57600092610893575b50508160011b916000199060031b1c19161760028301555b606081015160038301556080810151600483015560a081015160058301805460c084015160e085015163ffff000060109190911b1663ffffffff1990921660ff9094169390931760089390931b61ff001692909217919091179055610100810151600683015560ff6101208201511660ff60078401911660ff198254161790556008820161014082015180519067ffffffffffffffff82116107bc576106718354611639565b601f811161084b575b50602090601f83116001146107dd5791806101c09492600a96946000926107d2575b50508160011b916000199060031b1c19161790555b6101608101516009850180546101808401516101a08501516001600160b01b031990921660ff941515949094169390931792151560081b61ff00169290921760109290921b62010000600160b01b031691909117905501519101553360005260046020526040600020805495680100000000000000008710156107bc576107ac86947fdfd32624aa382a2d880d676a1a0e09b23da02f53ef90a8368c5ea3bdb572984a9461076a8a61079396600160209d018155611524565b81549060031b9089821b91600019901b1916179055604051948594608086526080860190611552565b918a850152604084015282810360608401523396611552565b0390a36001600055604051908152f35b634e487b7160e01b600052604160045260246000fd5b015190508c8061069c565b90601f1983169184600052816000209260005b8181106108335750926001928592600a98966101c098961061081a575b505050811b0190556106b1565b015160001960f88460031b161c191690558c808061080d565b929360206001819287860151815501950193016107f0565b836000526020600020601f840160051c81019160208510610889575b601f0160051c01905b81811061087d575061067a565b60008155600101610870565b9091508190610867565b0151905089806105b3565b92506002850160005280600020906000935b601f19841685106108f4576001945083601f198116106108db575b505050811b0160028301556105cb565b015160001960f88460031b161c191690558980806108cb565b818101518355602094850194600190930192909101906108b0565b909150600285016000526020600020601f840160051c81016020851061095b575b90849392915b601f830160051c8201811061094c57505061059c565b60008155859450600101610936565b5080610930565b634e487b7160e01b600052601160045260246000fd5b60405162461bcd60e51b815260206004820152601e60248201527f504c3a204d696e2072656e74616c20706572696f6420726571756972656400006044820152606490fd5b60405162461bcd60e51b815260206004820152601560248201527414130e88131bd8d85d1a5bdb881c995c5d5a5c9959605a1b6044820152606490fd5b60405162461bcd60e51b815260206004820152601760248201527f504c3a204465706f736974206d757374206265203e20300000000000000000006044820152606490fd5b60405162461bcd60e51b81526020600482015260156024820152740504c3a205072696365206d757374206265203e203605c1b6044820152606490fd5b346101be5760203660031901126101be57600435806000526003602052610ab460018060a01b03600160406000200154163314611773565b806000526003602052610ad160ff600960406000200154166117b6565b610ad9611802565b80600052600360205260ff60096040600020015460081c1615610b3b576000818152600360205260408120600901805461ffff191690557f3b818a41b4017c13a2ffa077cad15f93753644f8625bdafb19f3f08d53c959249080a26001600055005b60405162461bcd60e51b815260206004820152602160248201527f504c3a2043616e6e6f7420756e6c6973742072656e7465642070726f706572746044820152607960f81b6064820152608490fd5b346101be576101403660031901126101be5760043560243567ffffffffffffffff81116101be57610bbf9036906004016115d2565b606435604435610bcd611629565b9060a4359160ff831683036101be5760c4359361ffff851685036101be5760e43593610104359560ff87168097036101be576101243567ffffffffffffffff81116101be57610c209036906004016115d2565b93896000526003602052610c4560018060a01b03600160406000200154163314611773565b896000526003602052610c6260ff600960406000200154166117b6565b610c6a611802565b89600052600360205260ff60096040600020015460081c1615610fce57896000526003602052604060002092600284018a5167ffffffffffffffff81116107bc57610cb58254611639565b601f8111610f86575b5060208c601f8311600114610f0c579282610d2d93600899989693610d479896600092610f01575b50508160011b916000199060031b1c19161790555b600386018a90556004860188905560058601805461ffff191660ff949094169390931760089190911b61ff0016178255565b9063ffff000082549160101b169063ffff00001916179055565b856006820155600781018760ff1982541617905501825167ffffffffffffffff81116107bc57610d778254611639565b601f8111610eb9575b506020601f8211600114610e275792610def979592827f159b7f0adfd110df75053222bf54865814e70f24ce3e5fa72320daa3a0423abd9a989693610e0796600091610e1c575b508160011b916000199060031b1c19161790555b60405197889760c0895260c0890190611552565b92602088015260408701528582036060870152611552565b91608084015260a08301520390a26001600055005b90508401518d610dc7565b601f1982169083600052806000209160005b818110610ea1575083610e079693610def9b9996937f159b7f0adfd110df75053222bf54865814e70f24ce3e5fa72320daa3a0423abd9d9b999660019410610e88575b5050811b019055610ddb565b86015160001960f88460031b161c191690558d80610e7c565b9192602060018192868b015181550194019201610e39565b826000526020600020601f830160051c81019160208410610ef7575b601f0160051c01905b818110610eeb5750610d80565b60008155600101610ede565b9091508190610ed5565b015190508f80610ce6565b50601f19821690836000528d816000209260005b818110610f69575093600899989693610d4798969360019383610d2d9810610f50575b505050811b019055610cfb565b015160001960f88460031b161c191690558f3881610f43565b929360016020929391868493015181550194019201908f91610f20565b826000526020600020601f830160051c81019160208410610fc4575b601f0160051c01905b818110610fb85750610cbe565b60008155600101610fab565b9091508190610fa2565b60405162461bcd60e51b815260206004820152602960248201527f504c3a2043616e6e6f74207570646174652072656e7465642070726f70657274604482015268792064657461696c7360b81b6064820152608490fd5b346101be5760203660031901126101be5760043560006101c060405161104a81611593565b828152826020820152606060408201528260608201528260808201528260a08201528260c08201528260e0820152826101008201528261012082015260606101408201528261016082015282610180820152826101a082015201528060005260036020526040600020541561127f5760005260036020526040600020604051906110d382611593565b8054825260018101546001600160a01b031660208301908152906110f960028201611673565b92604081019384526003820154606082019081526004830154926080830193845260058101549160a084019260ff8116845260c08501908060081c60ff16825260e086019060101c61ffff16815260068401546101008701908152600785015460ff169161012088019283526008860161117290611673565b9361014089019485526009870154976101608a019a60ff8a1615158c526101808b01988a60081c60ff1615158a526101a08c019a600160a01b600190039060101c168b52600a01549a6101c081019b8c526040519e8f9e8f9260208452516020840152600160a01b60019003905116604083015251606082016101e0905261020082016111fe91611552565b985190608001525160a08d01525160ff1660c08c01525160ff1660e08b01525161ffff166101008a0152516101208901525160ff166101408801525190601f198782030161016088015261125191611552565b935115156101808601525115156101a0850152516001600160a01b03166101c0840152516101e08301520390f35b60405162461bcd60e51b815260206004820152601b60248201527f504c3a2050726f706572747920646f6573206e6f7420657869737400000000006044820152606490fd5b346101be5760203660031901126101be576004356112e0611802565b6112f560018060a01b03600254163314611717565b806000526003602052604060002090600982019182549060ff8216806113c7575b1561138257600a018054610100600160b01b0319831661010017909455600090556040805160018152602081019490945260109190911c6001600160a01b0316927f8d7bd457707aae1d4bef0d6e2872f460041993e273149d3fada0214366ddff529190a36001600055005b60405162461bcd60e51b815260206004820152601b60248201527f504c3a2050726f706572747920776173206e6f742072656e74656400000000006044820152606490fd5b5060ff8260081c1615611316565b346101be5760203660031901126101be576001600160a01b036113f661150e565b16801561143657600280546001600160a01b031916821790557fc57b0fa689f951c6b5708b4cc8a4862ce560a11e72af7eedb576f67fb4ff8a64600080a2005b60405162461bcd60e51b815260206004820152601060248201526f504c3a205a65726f206164647265737360801b6044820152606490fd5b346101be5760003660031901126101be576020600154604051908152f35b346101be5760003660031901126101be576002546040516001600160a01b039091168152602090f35b346101be5760403660031901126101be576114ce61150e565b6001600160a01b03166000908152600460205260409020805460243591908210156101be576020916114ff91611524565b90549060031b1c604051908152f35b600435906001600160a01b03821682036101be57565b805482101561153c5760005260206000200190600090565b634e487b7160e01b600052603260045260246000fd5b919082519283825260005b84811061157e575050826000602080949584010152601f8019910116010190565b8060208092840101518282860101520161155d565b6101e0810190811067ffffffffffffffff8211176107bc57604052565b90601f8019910116810190811067ffffffffffffffff8211176107bc57604052565b81601f820112156101be5780359067ffffffffffffffff82116107bc5760405192611607601f8401601f1916602001856115b0565b828452602083830101116101be57816000926020809301838601378301015290565b6084359060ff821682036101be57565b90600182811c92168015611669575b602083101461165357565b634e487b7160e01b600052602260045260246000fd5b91607f1691611648565b906040519182600082549261168784611639565b80845293600181169081156116f557506001146116ae575b506116ac925003836115b0565b565b90506000929192526020600020906000915b8183106116d95750509060206116ac928201013861169f565b60209193508060019154838589010152019101909184926116c0565b9050602092506116ac94915060ff191682840152151560051b8201013861169f565b1561171e57565b60405162461bcd60e51b815260206004820152602760248201527f504c3a2043616c6c6572206e6f742052656e74616c41677265656d656e7420636044820152661bdb9d1c9858dd60ca1b6064820152608490fd5b1561177a57565b60405162461bcd60e51b815260206004820152601460248201527328261d1021b0b63632b9103737ba1037bbb732b960611b6044820152606490fd5b156117bd57565b60405162461bcd60e51b815260206004820152601760248201527f504c3a2050726f7065727479206e6f74206c69737465640000000000000000006044820152606490fd5b600260005414611813576002600055565b60405162461bcd60e51b815260206004820152601f60248201527f5265656e7472616e637947756172643a207265656e7472616e742063616c6c006044820152606490fdfea2646970667358221220c476ca3c8bb3c738af80a34c2616f1b49b33721622e7a18e69a43e1d6649751664736f6c634300081c0033",
  "linkReferences": {},
  "deployedLinkReferences": {}
}