{
  "_format": "hh-sol-artifact-1",
  "contractName": "PropertyReviews",
  "sourceName": "contracts/PropertyReviews.sol",
  "abi": [
    {
      "inputs": [
        {
          "internalType": "address",
          "name": "_rentalAgreement",
          "type": "address"
        },
        {
          "internalType": "address",
          "name": "_userRegistry",
          "type": "address"
        }
      ],
      "stateMutability": "nonpayable",
      "type": "constructor"
    },
    {
      "anonymous": false,
      "inputs": [
        {
          "indexed": true,
          "internalType": "uint256",
          "name": "rentalId",
          "type": "uint256"
        },
        {
          "indexed": true,
          "internalType": "address",
          "name": "reviewer",
          "type": "address"
        },
        {
          "indexed": true,
          "internalType": "address",
          "name": "reviewed",
          "type": "address"
        },
        {
          "indexed": false,
          "internalType": "uint256",
          "name": "propertyId",
          "type": "uint256"
        },
        {
          "indexed": false,
          "internalType": "uint8",
          "name": "rating",
          "type": "uint8"
        },
        {
          "indexed": false,
          "internalType": "enum PropertyReviews.ReviewType",
          "name": "reviewType",
          "type": "uint8"
        }
      ],
      "name": "ReviewAdded",
      "type": "event"
    },
    {
      "inputs": [
        {
          "internalType": "uint256",
          "name": "_rentalId",
          "type": "uint256"
        },
        {
          "internalType": "uint256",
          "name": "_propertyId",
          "type": "uint256"
        },
        {
          "internalType": "uint8",
          "name": "_rating",
          "type": "uint8"
        },
        {
          "internalType": "string",
          "name": "_comment",
          "type": "string"
        }
      ],
      "name": "addPropertyReview",
      "outputs": [],
      "stateMutability": "nonpayable",
      "type": "function"
    },
    {
      "inputs": [
        {
          "internalType": "uint256",
          "name": "_rentalId",
          "type": "uint256"
        },
        {
          "internalType": "address",
          "name": "_reviewedUser",
          "type": "address"
        },
        {
          "internalType": "uint8",
          "name": "_rating",
          "type": "uint8"
        },
        {
          "internalType": "string",
          "name": "_comment",
          "type": "string"
        },
        {
          "internalType": "enum PropertyReviews.ReviewType",
          "name": "_reviewType",
          "type": "uint8"
        }
      ],
      "name": "addUserReview",
      "outputs": [],
      "stateMutability": "nonpayable",
      "type": "function"
    },
    {
      "inputs": [
        {
          "internalType": "uint256",
          "name": "_propertyId",
          "type": "uint256"
        }
      ],
      "name": "getPropertyAverageRating",
      "outputs": [
        {
          "internalType": "uint8",
          "name": "",
          "type": "uint8"
        }
      ],
      "stateMutability": "view",
      "type": "function"
    },
    {
      "inputs": [
        {
          "internalType": "uint256",
          "name": "_propertyId",
          "type": "uint256"
        }
      ],
      "name": "getPropertyReviews",
      "outputs": [
        {
          "components": [
            {
              "internalType": "uint256",
              "name": "rentalId",
              "type": "uint256"
            },
            {
              "internalType": "address",
              "name": "reviewer",
              "type": "address"
            },
            {
              "internalType": "address",
              "name": "reviewed",
              "type": "address"
            },
            {
              "internalType": "uint256",
              "name": "propertyId",
              "type": "uint256"
            },
            {
              "internalType": "uint8",
              "name": "rating",
              "type": "uint8"
            },
            {
              "internalType": "string",
              "name": "comment",
              "type": "string"
            },
            {
              "internalType": "uint256",
              "name": "timestamp",
              "type": "uint256"
            },
            {
              "internalType": "enum PropertyReviews.ReviewType",
              "name": "reviewType",
              "type": "uint8"
            }
          ],
          "internalType": "struct PropertyReviews.Review[]",
          "name": "",
          "type": "tuple[]"
        }
      ],
      "stateMutability": "view",
      "type": "function"
    },
    {
      "inputs": [
        {
          "internalType": "address",
          "name": "_user",
          "type": "address"
        }
      ],
      "name": "getUserAverageRating",
      "outputs": [
        {
          "internalType": "uint8",
          "name": "",
          "type": "uint8"
        }
      ],
      "stateMutability": "view",
      "type": "function"
    },
    {
      "inputs": [
        {
          "internalType": "address",
          "name": "_user",
          "type": "address"
        }
      ],
      "name": "getUserReviews",
      "outputs": [
        {
          "components": [
            {
              "internalType": "uint256",
              "name": "rentalId",
              "type": "uint256"
            },
            {
              "internalType": "address",
              "name": "reviewer",
              "type": "address"
            },
            {
              "internalType": "address",
              "name": "reviewed",
              "type": "address"
            },
            {
              "internalType": "uint256",
              "name": "propertyId",
              "type": "uint256"
            },
            {
              "internalType": "uint8",
              "name": "rating",
              "type": "uint8"
            },
            {
              "internalType": "string",
              "name": "comment",
              "type": "string"
            },
            {
              "internalType": "uint256",
              "name": "timestamp",
              "type": "uint256"
            },
            {
              "internalType": "enum PropertyReviews.ReviewType",
              "name": "reviewType",
              "type": "uint8"
            }
          ],
          "internalType": "struct PropertyReviews.Review[]",
          "name": "",
          "type": "tuple[]"
        }
      ],
      "stateMutability": "view",
      "type": "function"
    },
    {
      "inputs": [
        {
          "internalType": "uint256",
          "name": "",
          "type": "uint256"
        }
      ],
      "name": "hasReviewedRental",
      "outputs": [
        {
          "internalType": "bool",
          "name": "",
          "type": "bool"
        }
      ],
      "stateMutability": "view",
      "type": "function"
    },
    {
      "inputs": [
        {
          "internalType": "uint256",
          "name": "",
          "type": "uint256"
        },
        {
          "internalType": "uint256",
          "name": "",
          "type": "uint256"
        }
      ],
      "name": "propertyReviews",
      "outputs": [
        {
          "internalType": "uint256",
          "name": "rentalId",
          "type": "uint256"
        },
        {
          "internalType": "address",
          "name": "reviewer",
          "type": "address"
        },
        {
          "internalType": "address",
          "name": "reviewed",
          "type": "address"
        },
        {
          "internalType": "uint256",
          "name": "propertyId",
          "type": "uint256"
        },
        {
          "internalType": "uint8",
          "name": "rating",
          "type": "uint8"
        },
        {
          "internalType": "string",
          "name": "comment",
          "type": "string"
        },
        {
          "internalType": "uint256",
          "name": "timestamp",
          "type": "uint256"
        },
        {
          "internalType": "enum PropertyReviews.ReviewType",
          "name": "reviewType",
          "type": "uint8"
        }
      ],
      "stateMutability": "view",
      "type": "function"
    },
    {
      "inputs": [],
      "name": "rentalAgreement",
      "outputs": [
        {
          "internalType": "contract RentalAgreement",
          "name": "",
          "type": "address"
        }
      ],
      "stateMutability": "view",
      "type": "function"
    },
    {
      "inputs": [],
      "name": "userRegistry",
      "outputs": [
        {
          "internalType": "contract UserRegistry",
          "name": "",
          "type": "address"
        }
      ],
      "stateMutability": "view",
      "type": "function"
    },
    {
      "inputs": [
        {
          "internalType": "address",
          "name": "",
          "type": "address"
        },
        {
          "internalType": "uint256",
          "name": "",
          "type": "uint256"
        }
      ],
      "name": "userReviews",
      "outputs": [
        {
          "internalType": "uint256",
          "name": "rentalId",
          "type": "uint256"
        },
        {
          "internalType": "address",
          "name": "reviewer",
          "type": "address"
        },
        {
          "internalType": "address",
          "name": "reviewed",
          "type": "address"
        },
        {
          "internalType": "uint256",
          "name": "propertyId",
          "type": "uint256"
        },
        {
          "internalType": "uint8",
          "name": "rating",
          "type": "uint8"
        },
        {
          "internalType": "string",
          "name": "comment",
          "type": "string"
        },
        {
          "internalType": "uint256",
          "name": "timestamp",
          "type": "uint256"
        },
        {
          "internalType": "enum PropertyReviews.ReviewType",
          "name": "reviewType",
          "type": "uint8"
        }
      ],
      "stateMutability": "view",
      "type": "function"
    }
  ],
  "bytecode": "0x608034608b57601f61156a38819003918201601f19168301916001600160401b038311848410176090578084926040948552833981010312608b57604b602060458360a6565b920160a6565b6001600081905580546001600160a01b039384166001600160a01b031991821617909155600280549290931691161790556040516114b090816100ba8239f35b600080fd5b634e487b7160e01b600052604160045260246000fd5b51906001600160a01b0382168203608b5756fe608080604052600436101561001357600080fd5b60003560e01c90816318d0e8b214610985575080631f4ac1291461093f5780631f8bf949146109215780633d0ffcf6146108f85780635c7460d6146108cf5780635c784ecd1461089e578063808a2a4b14610870578063a8eb0ba01461046c578063ad834ff01461035e578063b187f54a1461012f5763ebf9aa921461009857600080fd5b3461012a57604036600319011261012a576024356004356000526003602052604060002090815481101561012a576100cf91610bb6565b50805460018201546002830154600384015460048501546001600160a01b03938416956101269490931692919060ff1661010b60058401610c61565b9160ff60076006860154950154169460405198899889610d05565b0390f35b600080fd5b3461012a57608036600319011261012a5760243560043561014e610d60565b9160643567ffffffffffffffff811161012a5761017160ff913690600401610d70565b9361017a611424565b1691600183101580610353575b6101909061106e565b6001546040516305c222cd60e21b8152600481018390529061016090829060249082906001600160a01b03165afa90811561034757600091610318575b5060408101516001600160a01b031633036102d35761012001519260058410156102bd576102686002956102056000978897146111b0565b838652600560205261021e60ff604088205416156111ef565b6040519061022b82610c22565b84825233602083015286604083015285606083015283608083015260a08201524260c08201528560e082015284865260036020526040862061123b565b818452600560205260408420600160ff1982541617905560405192835260208301528260408301527fc8b8e00ecc15d2abea987f5e71d9445dcf133a6e7514283304b0cd26b96a9e6060603393a46001815580f35b634e487b7160e01b600052602160045260246000fd5b60405162461bcd60e51b815260206004820152601f60248201527f4e6f74207468652074656e616e74206f6620746869732070726f7065727479006044820152606490fd5b61033a91506101603d8111610340575b6103328183610c3f565b8101906110db565b856101cd565b503d610328565b6040513d6000823e3d90fd5b506005831115610187565b3461012a57602036600319011261012a5760043560005260036020526040600020805467ffffffffffffffff811161045657604051916103a460208360051b0184610c3f565b818352602083019060005260206000206000915b8383106103cd57604051806101268782610aec565b600860206001926040516103e081610c22565b855481528486015460a086901b86900390811684830152600287015416604082015260038601546060820152600486015460ff16608082015261042560058701610c61565b60a0820152600686015460c082015261044860ff60078801541660e08301610dc7565b8152019201920191906103b8565b634e487b7160e01b600052604160045260246000fd5b3461012a5760a036600319011261012a576004356024356001600160a01b0381169081900361012a5761049d610d60565b60643567ffffffffffffffff811161012a576104bd903690600401610d70565b9260843591600383101561012a5760ff906104d6611424565b1691600183101580610865575b6104ec9061106e565b600090801561081457600254604051630b1fba9160e11b81526004810187905290602090829060249082906001600160a01b03165afa9081156108095783916107cb575b5015610786576001546040516305c222cd60e21b815260048101859052929061016090849060249082906001600160a01b03165afa928315610779578193610758575b5050600181036106e35760408201516001600160a01b03163314806106cd575b15610688575b6101208201519560058710156102bd5761062d602061065b946105c0600260009b146111b0565b868a52600582526105d860ff60408c205416156111ef565b0191825190604051916105ea83610c22565b878352336020840152896040840152606083015287608083015260a08201524260c082015261061c8460e08301610dc7565b87895260046020526040892061123b565b838752600560205260408720600160ff19825416179055519360405194855260208501526040840190610adf565b7fc8b8e00ecc15d2abea987f5e71d9445dcf133a6e7514283304b0cd26b96a9e6060603393a46001815580f35b60405162461bcd60e51b815260206004820152601d60248201527f4e6f742074656e616e7420726576696577696e67206c616e646c6f72640000006044820152606490fd5b5060608201516001600160a01b03168514610593565b60608201516001600160a01b0316331480610742575b6105995760405162461bcd60e51b815260206004820152601d60248201527f4e6f74206c616e646c6f726420726576696577696e672074656e616e740000006044820152606490fd5b5060408201516001600160a01b031685146106f9565b6107729193506101603d8111610340576103328183610c3f565b9187610573565b50604051903d90823e3d90fd5b60405162461bcd60e51b815260206004820152601c60248201527f52657669657765642075736572206e6f742072656769737465726564000000006044820152606490fd5b90506020813d602011610801575b816107e660209383610c3f565b810103126107fd576107f7906110ba565b87610530565b8280fd5b3d91506107d9565b6040513d85823e3d90fd5b60405162461bcd60e51b8152602060048201526024808201527f5573652061646450726f706572747952657669657720666f722070726f7065726044820152637469657360e01b6064820152608490fd5b5060058311156104e3565b3461012a57602036600319011261012a57602061089361088e610a88565b610f5a565b60ff60405191168152f35b3461012a57602036600319011261012a576004356000526005602052602060ff604060002054166040519015158152f35b3461012a57600036600319011261012a576002546040516001600160a01b039091168152602090f35b3461012a57600036600319011261012a576001546040516001600160a01b039091168152602090f35b3461012a57602036600319011261012a576020610893600435610e2a565b3461012a57604036600319011261012a57610958610a88565b6001600160a01b0316600090815260046020526040902080546024359081101561012a576100cf91610bb6565b3461012a57602036600319011261012a576001600160a01b036109a6610a88565b166000526004602052604060002080549067ffffffffffffffff8211610456576109d660208360051b0184610c3f565b818352602083019060005260206000206000915b8383106109ff57604051806101268782610aec565b60086020600192604051610a1281610c22565b855481528486015460a086901b86900390811684830152600287015416604082015260038601546060820152600486015460ff166080820152610a5760058701610c61565b60a0820152600686015460c0820152610a7a60ff60078801541660e08301610dc7565b8152019201920191906109ea565b600435906001600160a01b038216820361012a57565b919082519283825260005b848110610aca575050826000602080949584010152601f8019910116010190565b80602080928401015182828601015201610aa9565b9060038210156102bd5752565b602081016020825282518091526040820191602060408360051b8301019401926000915b838310610b1f57505050505090565b9091929394602080600192603f19858203018652610ba789519182518152858060a01b03848401511684820152858060a01b0360408401511660408201526060830151606082015260ff608084015116608082015260e080610b9260a086015161010060a0860152610100850190610a9e565b9460c081015160c08501520151910190610adf565b97019301930191939290610b10565b8054821015610bd25760005260206000209060031b0190600090565b634e487b7160e01b600052603260045260246000fd5b90600182811c92168015610c18575b6020831014610c0257565b634e487b7160e01b600052602260045260246000fd5b91607f1691610bf7565b610100810190811067ffffffffffffffff82111761045657604052565b90601f8019910116810190811067ffffffffffffffff82111761045657604052565b9060405191826000825492610c7584610be8565b8084529360018116908115610ce35750600114610c9c575b50610c9a92500383610c3f565b565b90506000929192526020600020906000915b818310610cc7575050906020610c9a9282010138610c8d565b6020919350806001915483858901015201910190918492610cae565b905060209250610c9a94915060ff191682840152151560051b82010138610c8d565b939460e095610d5394610c9a999b9a989460ff94885260018060a01b0316602088015260018060a01b03166040870152606086015216608084015261010060a0840152610100830190610a9e565b9560c08201520190610adf565b6044359060ff8216820361012a57565b81601f8201121561012a5780359067ffffffffffffffff82116104565760405192610da5601f8401601f191660200185610c3f565b8284526020838301011161012a57816000926020809301838601378301015290565b60038210156102bd5752565b8051821015610bd25760209160051b010190565b91908201809211610df457565b634e487b7160e01b600052601160045260246000fd5b8115610e14570490565b634e487b7160e01b600052601260045260246000fd5b6000526003602052604060002090815467ffffffffffffffff81116104565760405192610e5d60208360051b0185610c3f565b818452602084019060005260206000206000915b838310610ed15750505050815115610ecb57600091825b8151841015610eb757610eaf60019160ff6080610ea58887610dd3565b5101511690610de7565b930192610e88565b60ff929350610ec7915190610e0a565b1690565b60009150565b60086020600192604051610ee481610c22565b855481528486015460a086901b86900390811684830152600287015416604082015260038601546060820152600486015460ff166080820152610f2960058701610c61565b60a0820152600686015460c0820152610f4c60ff60078801541660e08301610dc7565b815201920192019190610e71565b60018060a01b03166000526004602052604060002090815467ffffffffffffffff81116104565760405192610f9560208360051b0185610c3f565b818452602084019060005260206000206000915b838310610fe55750505050815115610ecb57600091825b8151841015610eb757610fdd60019160ff6080610ea58887610dd3565b930192610fc0565b60086020600192604051610ff881610c22565b855481528486015460a086901b86900390811684830152600287015416604082015260038601546060820152600486015460ff16608082015261103d60058701610c61565b60a0820152600686015460c082015261106060ff60078801541660e08301610dc7565b815201920192019190610fa9565b1561107557565b60405162461bcd60e51b815260206004820152601a60248201527f526174696e67206d757374206265206265747765656e20312d350000000000006044820152606490fd5b5190811515820361012a57565b51906001600160a01b038216820361012a57565b908161016091031261012a57604051906000610160830167ffffffffffffffff81118482101761119c576040528151835260208201516020840152611122604083016110c7565b6040840152611133606083016110c7565b60608401526080820151608084015260a082015160a084015260c082015160c084015260e082015160e0840152610100820151610100840152610120820151906005821015611199575061012083015261119090610140016110ba565b61014082015290565b80fd5b634e487b7160e01b82526041600452602482fd5b156111b757565b60405162461bcd60e51b815260206004820152601060248201526f14995b9d185b081b9bdd08195b99195960821b6044820152606490fd5b156111f657565b60405162461bcd60e51b815260206004820152601c60248201527f416c726561647920726576696577656420746869732072656e74616c000000006044820152606490fd5b8054680100000000000000008110156104565761125d91600182018155610bb6565b61140e578151815560208201516001820180546001600160a01b039283166001600160a01b031991821617909155604084015160028401805491909316911617905560608201516003820155608082015160048201805460ff90921660ff1990921691909117905560a08201518051600583019167ffffffffffffffff8211610456576112ea8354610be8565b601f81116113c6575b50602090601f83116001146113595791806007949260e0969460009261134e575b50508160011b916000199060031b1c19161790555b60c084015160068201550191015160038110156102bd5760ff80198354169116179055565b015190503880611314565b90601f1983169184600052816000209260005b8181106113ae575092600192859260e098966007989610611395575b505050811b019055611329565b015160001960f88460031b161c19169055388080611388565b9293602060018192878601518155019501930161136c565b836000526020600020601f840160051c81019160208510611404575b601f0160051c01905b8181106113f857506112f3565b600081556001016113eb565b90915081906113e2565b634e487b7160e01b600052600060045260246000fd5b600260005414611435576002600055565b60405162461bcd60e51b815260206004820152601f60248201527f5265656e7472616e637947756172643a207265656e7472616e742063616c6c006044820152606490fdfea2646970667358221220cd3ea38da7735b8afdbe566a9dc041e4063ff529f26134f591e752f6221f022c64736f6c634300081c0033",
  "linkReferences": {},
  "deployedLinkReferences": {}
}