{
  "_format": "hh-sol-artifact-1",
  "contractName": "UserRegistry",
  "sourceName": "contracts/UserRegistry.sol",
  "abi": [
    {
      "anonymous": false,
      "inputs": [
        {
          "indexed": true,
          "internalType": "address",
          "name": "user",
          "type": "address"
        },
        {
          "indexed": false,
          "internalType": "string",
          "name": "newName",
          "type": "string"
        }
      ],
      "name": "ProfileUpdated",
      "type": "event"
    },
    {
      "anonymous": false,
      "inputs": [
        {
          "indexed": true,
          "internalType": "address",
          "name": "user",
          "type": "address"
        },
        {
          "indexed": false,
          "internalType": "string",
          "name": "name",
          "type": "string"
        }
      ],
      "name": "UserRegistered",
      "type": "event"
    },
    {
      "inputs": [
        {
          "internalType": "address",
          "name": "_userAddress",
          "type": "address"
        }
      ],
      "name": "getUserProfile",
      "outputs": [
        {
          "components": [
            {
              "internalType": "string",
              "name": "name",
              "type": "string"
            },
            {
              "internalType": "bool",
              "name": "isRegistered",
              "type": "bool"
            }
          ],
          "internalType": "struct UserRegistry.UserProfile",
          "name": "",
          "type": "tuple"
        }
      ],
      "stateMutability": "view",
      "type": "function"
    },
    {
      "inputs": [
        {
          "internalType": "address",
          "name": "_userAddress",
          "type": "address"
        }
      ],
      "name": "isUserRegistered",
      "outputs": [
        {
          "internalType": "bool",
          "name": "",
          "type": "bool"
        }
      ],
      "stateMutability": "view",
      "type": "function"
    },
    {
      "inputs": [
        {
          "internalType": "string",
          "name": "_name",
          "type": "string"
        }
      ],
      "name": "registerUser",
      "outputs": [],
      "stateMutability": "nonpayable",
      "type": "function"
    },
    {
      "inputs": [
        {
          "internalType": "string",
          "name": "_newName",
          "type": "string"
        }
      ],
      "name": "updateProfile",
      "outputs": [],
      "stateMutability": "nonpayable",
      "type": "function"
    },
    {
      "inputs": [
        {
          "internalType": "address",
          "name": "",
          "type": "address"
        }
      ],
      "name": "users",
      "outputs": [
        {
          "internalType": "string",
          "name": "name",
          "type": "string"
        },
        {
          "internalType": "bool",
          "name": "isRegistered",
          "type": "bool"
        }
      ],
      "stateMutability": "view",
      "type": "function"
    }
  ],
  "bytecode": "0x608080604052346015576107d3908161001b8239f35b600080fdfe6080604052600436101561001257600080fd5b60003560e01c80629299e3146103b7578063163f752214610371578063704f1b941461015b578063987ee156146100be5763a87430ba1461005257600080fd5b346100b95760203660031901126100b9576004356001600160a01b038116908190036100b95760005260006020526100ad604060002060ff6001610095836106ad565b92015416604051928392604084526040840190610632565b90151560208301520390f35b600080fd5b346100b95760203660031901126100b9576004356001600160a01b038116908190036100b957600060206040516100f48161057b565b606081520152600052600060205261014e604060002060ff60016040519261011b8461057b565b610124816106ad565b84520154166020820190151581526040519283926020845251604060208501526060840190610632565b9051151560408301520390f35b346100b957610169366105b9565b33600052600060205260ff6001604060002001541661032c5761018e81511515610751565b6040519061019b8261057b565b80825260208201600181523360005260006020526040600020925192835167ffffffffffffffff8111610316576101d28254610673565b601f81116102ce575b506020601f8211600114610265578190600194959660009261025a575b5050600019600383901b1c191690831b1781555b019051151560ff801983541691161790557f48cac28ad4dc618e15f4c2dd5e97751182f166de97b25618318b2112aa951a2f604051602081528061025533946020830190610632565b0390a2005b0151905086806101f8565b601f1982169583600052816000209660005b8181106102b6575091600195969791848795941061029d575b505050811b01815561020c565b015160001960f88460031b161c19169055868080610290565b83830151895560019098019760209384019301610277565b826000526020600020601f830160051c8101916020841061030c575b601f0160051c01905b81811061030057506101db565b600081556001016102f3565b90915081906102ea565b634e487b7160e01b600052604160045260246000fd5b60405162461bcd60e51b815260206004820152601b60248201527f55523a205573657220616c7265616479207265676973746572656400000000006044820152606490fd5b346100b95760203660031901126100b9576004356001600160a01b038116908190036100b9576000526000602052602060ff600160406000200154166040519015158152f35b346100b9576103c5366105b9565b33600052600060205260ff6001604060002001541615610536576103eb81511515610751565b3360005260006020526040600020815167ffffffffffffffff8111610316576104148254610673565b601f81116104ee575b50806020601f821160011461048b57600091610480575b508160011b916000199060031b1c19161790555b7fdd635a4cd84864e37e4479dbfc2ec667acfa473c83c8422a8ac9d9d07599b01c604051602081528061025533946020830190610632565b905083015184610434565b60008481528181209250601f198416905b8181106104d6575090836001949392106104bd575b5050811b019055610448565b85015160001960f88460031b161c1916905584806104b1565b9192602060018192868a01518155019401920161049c565b826000526020600020601f830160051c8101916020841061052c575b601f0160051c01905b818110610520575061041d565b60008155600101610513565b909150819061050a565b60405162461bcd60e51b815260206004820152601760248201527f55523a2055736572206e6f7420726567697374657265640000000000000000006044820152606490fd5b6040810190811067ffffffffffffffff82111761031657604052565b90601f8019910116810190811067ffffffffffffffff82111761031657604052565b60206003198201126100b95760043567ffffffffffffffff81116100b957816023820112156100b95780600401359067ffffffffffffffff8211610316576040519261060f601f8401601f191660200185610597565b828452602483830101116100b95781600092602460209301838601378301015290565b919082519283825260005b84811061065e575050826000602080949584010152601f8019910116010190565b8060208092840101518282860101520161063d565b90600182811c921680156106a3575b602083101461068d57565b634e487b7160e01b600052602260045260246000fd5b91607f1691610682565b90604051918260008254926106c184610673565b808452936001811690811561072f57506001146106e8575b506106e692500383610597565b565b90506000929192526020600020906000915b8183106107135750509060206106e692820101386106d9565b60209193508060019154838589010152019101909184926106fa565b9050602092506106e694915060ff191682840152151560051b820101386106d9565b1561075857565b60405162461bcd60e51b815260206004820152601860248201527f55523a204e616d652063616e6e6f7420626520656d70747900000000000000006044820152606490fdfea26469706673582212206b3e4c23110ad432c118ef65ce2df7d0671e2d28a273be4b435d288bfb28280564736f6c634300081c0033",
  "linkReferences": {},
  "deployedLinkReferences": {}
}