{
  "_format": "hh-sol-artifact-1",
  "contractName": "DisputeResolution",
  "sourceName": "contracts/DisputeResolution.sol",
  "abi": [
    {
      "inputs": [
        {
          "internalType": "address",
          "name": "_rentalAgreement",
          "type": "address"
        },
        {
          "internalType": "address",
          "name": "_escrow",
          "type": "address"
        }
      ],
      "stateMutability": "nonpayable",
      "type": "constructor"
    },
    {
      "anonymous": false,
      "inputs": [
        {
          "indexed": true,
          "internalType": "address",
          "name": "arbitrator",
          "type": "address"
        }
      ],
      "name": "ArbitratorAdded",
      "type": "event"
    },
    {
      "anonymous": false,
      "inputs": [
        {
          "indexed": true,
          "internalType": "address",
          "name": "arbitrator",
          "type": "address"
        }
      ],
      "name": "ArbitratorRemoved",
      "type": "event"
    },
    {
      "anonymous": false,
      "inputs": [
        {
          "indexed": true,
          "internalType": "uint256",
          "name": "disputeId",
          "type": "uint256"
        },
        {
          "indexed": true,
          "internalType": "uint256",
          "name": "rentalId",
          "type": "uint256"
        },
        {
          "indexed": true,
          "internalType": "address",
          "name": "initiator",
          "type": "address"
        },
        {
          "indexed": false,
          "internalType": "enum DisputeResolution.DisputeType",
          "name": "disputeType",
          "type": "uint8"
        }
      ],
      "name": "DisputeCreated",
      "type": "event"
    },
    {
      "anonymous": false,
      "inputs": [
        {
          "indexed": true,
          "internalType": "uint256",
          "name": "disputeId",
          "type": "uint256"
        },
        {
          "indexed": false,
          "internalType": "enum DisputeResolution.Resolution",
          "name": "resolution",
          "type": "uint8"
        },
        {
          "indexed": false,
          "internalType": "address",
          "name": "resolver",
          "type": "address"
        }
      ],
      "name": "DisputeResolved",
      "type": "event"
    },
    {
      "anonymous": false,
      "inputs": [
        {
          "indexed": true,
          "internalType": "uint256",
          "name": "disputeId",
          "type": "uint256"
        },
        {
          "indexed": false,
          "internalType": "enum DisputeResolution.DisputeStatus",
          "name": "status",
          "type": "uint8"
        }
      ],
      "name": "DisputeStatusUpdated",
      "type": "event"
    },
    {
      "anonymous": false,
      "inputs": [
        {
          "indexed": true,
          "internalType": "address",
          "name": "previousOwner",
          "type": "address"
        },
        {
          "indexed": true,
          "internalType": "address",
          "name": "newOwner",
          "type": "address"
        }
      ],
      "name": "OwnershipTransferred",
      "type": "event"
    },
    {
      "inputs": [
        {
          "internalType": "address",
          "name": "_arbitrator",
          "type": "address"
        }
      ],
      "name": "addArbitrator",
      "outputs": [],
      "stateMutability": "nonpayable",
      "type": "function"
    },
    {
      "inputs": [
        {
          "internalType": "address",
          "name": "",
          "type": "address"
        }
      ],
      "name": "approvedArbitrators",
      "outputs": [
        {
          "internalType": "bool",
          "name": "",
          "type": "bool"
        }
      ],
      "stateMutability": "view",
      "type": "function"
    },
    {
      "inputs": [
        {
          "internalType": "uint256",
          "name": "_rentalId",
          "type": "uint256"
        },
        {
          "internalType": "string",
          "name": "_description",
          "type": "string"
        },
        {
          "internalType": "string",
          "name": "_evidence",
          "type": "string"
        },
        {
          "internalType": "uint256",
          "name": "_amount",
          "type": "uint256"
        },
        {
          "internalType": "enum DisputeResolution.DisputeType",
          "name": "_disputeType",
          "type": "uint8"
        }
      ],
      "name": "createDispute",
      "outputs": [
        {
          "internalType": "uint256",
          "name": "",
          "type": "uint256"
        }
      ],
      "stateMutability": "nonpayable",
      "type": "function"
    },
    {
      "inputs": [
        {
          "internalType": "uint256",
          "name": "",
          "type": "uint256"
        }
      ],
      "name": "disputes",
      "outputs": [
        {
          "internalType": "uint256",
          "name": "disputeId",
          "type": "uint256"
        },
        {
          "internalType": "uint256",
          "name": "rentalId",
          "type": "uint256"
        },
        {
          "internalType": "uint256",
          "name": "propertyId",
          "type": "uint256"
        },
        {
          "internalType": "address",
          "name": "tenant",
          "type": "address"
        },
        {
          "internalType": "address",
          "name": "landlord",
          "type": "address"
        },
        {
          "internalType": "string",
          "name": "description",
          "type": "string"
        },
        {
          "internalType": "string",
          "name": "evidence",
          "type": "string"
        },
        {
          "internalType": "uint256",
          "name": "amount",
          "type": "uint256"
        },
        {
          "internalType": "uint256",
          "name": "timestamp",
          "type": "uint256"
        },
        {
          "internalType": "enum DisputeResolution.DisputeStatus",
          "name": "status",
          "type": "uint8"
        },
        {
          "internalType": "enum DisputeResolution.DisputeType",
          "name": "disputeType",
          "type": "uint8"
        },
        {
          "internalType": "enum DisputeResolution.Resolution",
          "name": "resolution",
          "type": "uint8"
        },
        {
          "internalType": "string",
          "name": "resolutionDetails",
          "type": "string"
        },
        {
          "internalType": "address",
          "name": "resolver",
          "type": "address"
        },
        {
          "internalType": "uint256",
          "name": "resolvedTimestamp",
          "type": "uint256"
        }
      ],
      "stateMutability": "view",
      "type": "function"
    },
    {
      "inputs": [
        {
          "internalType": "uint256",
          "name": "",
          "type": "uint256"
        },
        {
          "internalType": "uint256",
          "name": "",
          "type": "uint256"
        }
      ],
      "name": "disputesByRental",
      "outputs": [
        {
          "internalType": "uint256",
          "name": "",
          "type": "uint256"
        }
      ],
      "stateMutability": "view",
      "type": "function"
    },
    {
      "inputs": [],
      "name": "escrow",
      "outputs": [
        {
          "internalType": "contract Escrow",
          "name": "",
          "type": "address"
        }
      ],
      "stateMutability": "view",
      "type": "function"
    },
    {
      "inputs": [
        {
          "internalType": "uint256",
          "name": "_disputeId",
          "type": "uint256"
        }
      ],
      "name": "getDispute",
      "outputs": [
        {
          "components": [
            {
              "internalType": "uint256",
              "name": "disputeId",
              "type": "uint256"
            },
            {
              "internalType": "uint256",
              "name": "rentalId",
              "type": "uint256"
            },
            {
              "internalType": "uint256",
              "name": "propertyId",
              "type": "uint256"
            },
            {
              "internalType": "address",
              "name": "tenant",
              "type": "address"
            },
            {
              "internalType": "address",
              "name": "landlord",
              "type": "address"
            },
            {
              "internalType": "string",
              "name": "description",
              "type": "string"
            },
            {
              "internalType": "string",
              "name": "evidence",
              "type": "string"
            },
            {
              "internalType": "uint256",
              "name": "amount",
              "type": "uint256"
            },
            {
              "internalType": "uint256",
              "name": "timestamp",
              "type": "uint256"
            },
            {
              "internalType": "enum DisputeResolution.DisputeStatus",
              "name": "status",
              "type": "uint8"
            },
            {
              "internalType": "enum DisputeResolution.DisputeType",
              "name": "disputeType",
              "type": "uint8"
            },
            {
              "internalType": "enum DisputeResolution.Resolution",
              "name": "resolution",
              "type": "uint8"
            },
            {
              "internalType": "string",
              "name": "resolutionDetails",
              "type": "string"
            },
            {
              "internalType": "address",
              "name": "resolver",
              "type": "address"
            },
            {
              "internalType": "uint256",
              "name": "resolvedTimestamp",
              "type": "uint256"
            }
          ],
          "internalType": "struct DisputeResolution.Dispute",
          "name": "",
          "type": "tuple"
        }
      ],
      "stateMutability": "view",
      "type": "function"
    },
    {
      "inputs": [
        {
          "internalType": "uint256",
          "name": "_rentalId",
          "type": "uint256"
        }
      ],
      "name": "getDisputesByRental",
      "outputs": [
        {
          "internalType": "uint256[]",
          "name": "",
          "type": "uint256[]"
        }
      ],
      "stateMutability": "view",
      "type": "function"
    },
    {
      "inputs": [
        {
          "internalType": "address",
          "name": "_address",
          "type": "address"
        }
      ],
      "name": "isArbitrator",
      "outputs": [
        {
          "internalType": "bool",
          "name": "",
          "type": "bool"
        }
      ],
      "stateMutability": "view",
      "type": "function"
    },
    {
      "inputs": [],
      "name": "owner",
      "outputs": [
        {
          "internalType": "address",
          "name": "",
          "type": "address"
        }
      ],
      "stateMutability": "view",
      "type": "function"
    },
    {
      "inputs": [
        {
          "internalType": "address",
          "name": "_arbitrator",
          "type": "address"
        }
      ],
      "name": "removeArbitrator",
      "outputs": [],
      "stateMutability": "nonpayable",
      "type": "function"
    },
    {
      "inputs": [],
      "name": "renounceOwnership",
      "outputs": [],
      "stateMutability": "nonpayable",
      "type": "function"
    },
    {
      "inputs": [],
      "name": "rentalAgreement",
      "outputs": [
        {
          "internalType": "contract RentalAgreement",
          "name": "",
          "type": "address"
        }
      ],
      "stateMutability": "view",
      "type": "function"
    },
    {
      "inputs": [
        {
          "internalType": "uint256",
          "name": "_disputeId",
          "type": "uint256"
        },
        {
          "internalType": "enum DisputeResolution.Resolution",
          "name": "_resolution",
          "type": "uint8"
        },
        {
          "internalType": "string",
          "name": "_resolutionDetails",
          "type": "string"
        }
      ],
      "name": "resolveDispute",
      "outputs": [],
      "stateMutability": "nonpayable",
      "type": "function"
    },
    {
      "inputs": [
        {
          "internalType": "address",
          "name": "newOwner",
          "type": "address"
        }
      ],
      "name": "transferOwnership",
      "outputs": [],
      "stateMutability": "nonpayable",
      "type": "function"
    },
    {
      "inputs": [
        {
          "internalType": "uint256",
          "name": "_disputeId",
          "type": "uint256"
        },
        {
          "internalType": "enum DisputeResolution.DisputeStatus",
          "name": "_newStatus",
          "type": "uint8"
        }
      ],
      "name": "updateDisputeStatus",
      "outputs": [],
      "stateMutability": "nonpayable",
      "type": "function"
    }
  ],
  "bytecode": "0x6080346100dd57601f611b9838819003918201601f19168301916001600160401b038311848410176100e25780849260409485528339810103126100dd57610052602061004b836100f8565b92016100f8565b600160008181558154336001600160a01b0319821681179093556040519492916001600160a01b03909116907f8be0079c531659141344cd1fd0a4f28419497f9722a3daafe3b4186f6b6457e09080a3600280546001600160a01b039283166001600160a01b03199182161790915560038054939092169216919091179055611a8b908161010d8239f35b600080fd5b634e487b7160e01b600052604160045260246000fd5b51906001600160a01b03821682036100dd5756fe6080604052600436101561001257600080fd5b6000803560e01c806301fabd75146115f95780630971987814610ddd5780631ba0370414610d365780633d0ffcf614610d0d578063564a565d14610bbe57806362e15dd314610a3e578063715018a614610b615780638da5cb5b14610b38578063973ad27014610a805780639f6bd2a914610a3e578063c316939c146105ea578063ca7f081c14610497578063e2fdcc171461046e578063e3a96cbd146101e7578063ed1b6ed71461019e5763f2fde38b146100cd57600080fd5b3461019b57602036600319011261019b576004356001600160a01b03811690819003610199576100fb611987565b801561014557600180546001600160a01b0319811683179091556001600160a01b03167f8be0079c531659141344cd1fd0a4f28419497f9722a3daafe3b4186f6b6457e08380a380f35b60405162461bcd60e51b815260206004820152602660248201527f4f776e61626c653a206e6577206f776e657220697320746865207a65726f206160448201526564647265737360d01b6064820152608490fd5b505b80fd5b503461019b57604036600319011261019b5760243590600435815260066020526040812090815483101561019b5760206101d884846118b4565b90549060031b1c604051908152f35b503461019b57602036600319011261019b5780604051610206816116b7565b81815281602082015281604082015281606082015281608082015260a081016060905260c08101606090528160e082015281610100820152816101208201528161014082015281610160820152610180810160609052816101a08201526101c00152600435815260056020526040902060405190610283826116b7565b8054825260018101546020830190815260028201546040840190815260038301546001600160a01b0390811660608601908152600485015490911660808601908152919492939291906102d8600585016117a2565b60a08401908152916102ec600686016117a2565b60c0850190815260078601549360e086019485526008870154610100870190815260098801549260ff84169261012089019361032781611887565b84526101408901948060081c60ff1661034090876118f6565b60101c60ff16956101608a019661035681611887565b8752610364600a8c016117a2565b6101808b01908152600b8c01546001600160a01b039081166101a08d01908152600c909d01546101c08d019081526040805160208082529e519e81019e909e529e519e8d019e909e529d5160608c015297518d1660808b015251909b1660a089015299516101e060c089015296998a99976103e4906102008c0190611846565b90518a8203601f190160e08c01526103fc9190611846565b95516101008a0152516101208901525161041581611887565b61014088015251610160870161042a916118a7565b5161043481611887565b61018086015251848203601f19016101a08601526104529190611846565b91516001600160a01b03166101c0840152516101e08301520390f35b503461019b578060031936011261019b576003546040516001600160a01b039091168152602090f35b503461019b57604036600319011261019b5760043560243560048110156105e65733835260076020526104d060ff60408520541661193b565b6104d86119df565b6104e181611887565b6002811461059757818352600560205260096040842001600260ff82541661050881611887565b14610552578161053b7fb4ef1e3ff97f2c2eecce0bb7493ef0efa59950b72964df43d1039c92aa3e6c3a93602093611902565b6040519061054881611887565b8152a26001815580f35b60405162461bcd60e51b815260206004820152601860248201527f4469737075746520616c7265616479207265736f6c76656400000000000000006044820152606490fd5b60405162461bcd60e51b815260206004820152602160248201527f557365207265736f6c76654469737075746520666f72207265736f6c7574696f6044820152603760f91b6064820152608490fd5b8280fd5b503461019b57606036600319011261019b5760043560243560048110156105e65760443567ffffffffffffffff81116107fb5761062b90369060040161170c565b338452600760205261064360ff60408620541661193b565b61064b6119df565b82845260056020526040842060098101918254600260ff821661066d81611887565b14610a065761067b85611887565b84156109cc5760ff19166002178355610694848461191a565b8051600a83019167ffffffffffffffff82116109b85781906106b68454611768565b601f8111610968575b50602090601f83116001146109055789926108fa575b50508160011b916000199060031b1c19161790555b600b810180546001600160a01b0319163317905542600c82015560078101549182610741575b5050506040600080516020611a368339815191529181519061073181611887565b8152336020820152a26001815580f35b61074a84611887565b600184036108135760ff9192505460081c1660058110156107ff579084911561078a575b50506040600080516020611a36833981519152915b9138610710565b60038054600183015492909101546001600160a01b03918216929116823b156107fb576044849283604051958694859363f0f6e86d60e01b8552600485015260248401525af180156107f0571561076e57816107e5916116ea565b6105e657823861076e565b6040513d84823e3d90fd5b8380fd5b634e487b7160e01b85526021600452602485fd5b61081c84611887565b6002841461083f575b5050506040600080516020611a3683398151915291610783565b5460081c60ff1660058110156108e6579060038692036108255760035460018201546004909201546001600160a01b0390811692911690813b156107fb578360649260405196879586946379e263a960e01b86526004860152602485015260448401525af180156108db576108b6575b8381610825565b836108d3600080516020611a3683398151915293956040936116ea565b9391506108af565b6040513d86823e3d90fd5b634e487b7160e01b86526021600452602486fd5b0151905038806106d5565b848a52818a209250601f1984168a5b8181106109505750908460019594939210610937575b505050811b0190556106ea565b015160001960f88460031b161c1916905538808061092a565b92936020600181928786015181550195019301610914565b90915083895260208920601f840160051c810191602085106109ae575b90601f859493920160051c01905b8181106109a057506106bf565b8a8155849350600101610993565b9091508190610985565b634e487b7160e01b88526041600452602488fd5b60405162461bcd60e51b815260206004820152601260248201527124b73b30b634b2103932b9b7b63aba34b7b760711b6044820152606490fd5b60405162461bcd60e51b815260206004820152601060248201526f105b1c9958591e481c995cdbdb1d995960821b6044820152606490fd5b503461019b57602036600319011261019b576004356001600160a01b038116908190036101995760408260ff9260209452600784522054166040519015158152f35b503461019b57602036600319011261019b576004356001600160a01b0381169081900361019957610aaf611987565b808252600760205260ff60408320541615610aff57808252600760205260408220805460ff191690557f715484adb5bc9cc29af577725dbf8486d0b82eca3ba79f65846e92ff38ef32b58280a280f35b60405162461bcd60e51b81526020600482015260116024820152702737ba1030b71030b93134ba3930ba37b960791b6044820152606490fd5b503461019b578060031936011261019b576001546040516001600160a01b039091168152602090f35b503461019b578060031936011261019b57610b7a611987565b600180546001600160a01b0319811690915581906001600160a01b03167f8be0079c531659141344cd1fd0a4f28419497f9722a3daafe3b4186f6b6457e08280a380f35b503461019b57602036600319011261019b5760043581526005602052604090208054906001810154906002810154600160a01b60019003600383015416600160a01b6001900360048401541660058401610c17906117a2565b90610c24600686016117a2565b600786015492600887015460098801549260ff8416928460101c60ff1695600a8b01610c4f906117a2565b98600160a01b60019003600b8d0154169b600c01549a6040519e8f9e8f91825260208201526040015260608d015260808c015260a08b016101e090526101e08b01610c9991611846565b8a810360c08c0152610caa91611846565b9460e08a0152610100890152610cbf81611887565b61012088015261014087019060081c60ff1690610cdb916118a7565b610ce481611887565b610160860152848103610180860152610cfc91611846565b916101a08401526101c08301520390f35b503461019b578060031936011261019b576002546040516001600160a01b039091168152602090f35b503461019b57602036600319011261019b576004358152600660205260408120604051908160208254918281520190819285526020852090855b818110610dc75750505082610d869103836116ea565b604051928392602084019060208552518091526040840192915b818110610dae575050500390f35b8251845285945060209384019390920191600101610da0565b8254845260209093019260019283019201610d70565b503461019b5760a036600319011261019b576004359060243567ffffffffffffffff811161019957610e1390369060040161170c565b9060443567ffffffffffffffff811161019957610e3490369060040161170c565b92600560843510156101995760249293610e4c6119df565b6002546040516305c222cd60e21b815260048101849052946101609186919082906001600160a01b03165afa9384156115ee5783946114f6575b50604084019460018060a01b03865116331480156114e0575b1561149b57600454946000198614611487576001860160045560208101519651606090910151604051976001600160a01b039182169290911690610ee2896116b7565b6001880189528560208a015260408901526060880152608087015260a086015260c085015260643560e08501524261010085015281610120850152610f2d60843561014086016118f6565b81610160850152602093604051610f4486826116ea565b8381526101808201526101a081018390526101c081018390526001848101845260058652604080852083518155602084015192810192909255820151600282015560608201516003820180546001600160a01b039283166001600160a01b031991821617909155608084015160048401805491909316911617905560a082015180519192919067ffffffffffffffff82116113ac578190610fe86005860154611768565b601f8111611439575b508890601f83116001146113cb5787926113c0575b50508160011b916000199060031b1c19161760058301555b60c081015180519067ffffffffffffffff82116113ac5781906110446006860154611768565b601f811161135e575b508890601f83116001146112f05787926112e5575b50508160011b916000199060031b1c19161760068301555b60e081015160078301556101008101516008830155600982016110ab6101208301516110a581611887565b82611902565b61014082015160058110156108e657815461ff00191660089190911b61ff00161781556101608201516110e6916110e182611887565b61191a565b600a820161018082015180519067ffffffffffffffff82116112d15761110c8354611768565b601f811161128e575b508890601f83116001146112245791806101c09492600c96948a92611219575b50508160011b916000199060031b1c19161790555b6101a0810151600b850180546001600160a01b0319166001600160a01b0392909216919091179055015191015580825260068452604082208054906801000000000000000082101561120557816111a9916001809695940181556118b4565b81549060031b90858701821b91600019901b1916179055604051906111d0826084356118a7565b33917f177b4a884dc85c1207cb468852563758a2264f739e03de4216144e59323105c38786880192a455600160405191018152f35b634e487b7160e01b84526041600452602484fd5b015190503880611135565b8388528988209190601f198416895b8c828210611278575050926001928592600c98966101c098961061125f575b505050811b01905561114a565b015160001960f88460031b161c19169055388080611252565b6001859682939686015181550195019301611233565b838852898820601f840160051c8101918b85106112c7575b601f0160051c01905b8181106112bc5750611115565b8881556001016112af565b90915081906112a6565b634e487b7160e01b87526041600452602487fd5b015190503880611062565b92506006850187528887209087935b8a601f198516861061134557506001945083601f1981161061132c575b505050811b01600683015561107a565b015160001960f88460031b161c1916905538808061131c565b82820151845594850194600190930192909101906112ff565b909150600685018752888720601f840160051c81018a85106113a5575b90849392915b601f830160051c8201811061139757505061104d565b898155859450600101611381565b508061137b565b634e487b7160e01b86526041600452602486fd5b015190503880611006565b92506005850187528887209087935b8a601f198516861061142057506001945083601f19811610611407575b505050811b01600583015561101e565b015160001960f88460031b161c191690553880806113f7565b82820151845594850194600190930192909101906113da565b909150600585018752888720601f840160051c81018a8510611480575b90849392915b601f830160051c82018110611472575050610ff1565b89815585945060010161145c565b5080611456565b634e487b7160e01b85526011600452602485fd5b60405162461bcd60e51b815260206004820152601860248201527f4e6f7420612072656e74616c207061727469636970616e7400000000000000006044820152606490fd5b5060608501516001600160a01b03163314610e9f565b909350610160813d82116115e6575b8161151361016093836116ea565b810103126105e65760405190610160820182811067ffffffffffffffff8211176115d2576040528051825260208101516020830152611554604082016118e2565b6040830152611565606082016118e2565b60608301526080810151608083015260a081015160a083015260c081015160c083015260e081015160e083015261010081015161010083015261012081015160058110156115ce57610120830152610140015180151581036107fb576101408201529238610e86565b8480fd5b634e487b7160e01b85526041600452602485fd5b3d9150611505565b6040513d85823e3d90fd5b503461019b57602036600319011261019b576004356001600160a01b0381169081900361019957611628611987565b808252600760205260ff60408320541661167a57808252600760205260408220805460ff191660011790557ffc4dfef69004b5e3aba1eb4a8b1e53b893418fda232d9f60574a6c62f30c449d8280a280f35b60405162461bcd60e51b815260206004820152601560248201527420b63932b0b23c9030b71030b93134ba3930ba37b960591b6044820152606490fd5b6101e0810190811067ffffffffffffffff8211176116d457604052565b634e487b7160e01b600052604160045260246000fd5b90601f8019910116810190811067ffffffffffffffff8211176116d457604052565b81601f820112156117635780359067ffffffffffffffff82116116d45760405192611741601f8401601f1916602001856116ea565b8284526020838301011161176357816000926020809301838601378301015290565b600080fd5b90600182811c92168015611798575b602083101461178257565b634e487b7160e01b600052602260045260246000fd5b91607f1691611777565b90604051918260008254926117b684611768565b808452936001811690811561182457506001146117dd575b506117db925003836116ea565b565b90506000929192526020600020906000915b8183106118085750509060206117db92820101386117ce565b60209193508060019154838589010152019101909184926117ef565b9050602092506117db94915060ff191682840152151560051b820101386117ce565b919082519283825260005b848110611872575050826000602080949584010152601f8019910116010190565b80602080928401015182828601015201611851565b6004111561189157565b634e487b7160e01b600052602160045260246000fd5b9060058210156118915752565b80548210156118cc5760005260206000200190600090565b634e487b7160e01b600052603260045260246000fd5b51906001600160a01b038216820361176357565b60058210156118915752565b9061190c81611887565b60ff80198354169116179055565b9061192481611887565b62ff000082549160101b169062ff00001916179055565b1561194257565b60405162461bcd60e51b815260206004820152601a60248201527f4e6f7420616e20617070726f7665642061726269747261746f720000000000006044820152606490fd5b6001546001600160a01b0316330361199b57565b606460405162461bcd60e51b815260206004820152602060248201527f4f776e61626c653a2063616c6c6572206973206e6f7420746865206f776e65726044820152fd5b6002600054146119f0576002600055565b60405162461bcd60e51b815260206004820152601f60248201527f5265656e7472616e637947756172643a207265656e7472616e742063616c6c006044820152606490fdfed479d35c2c3aee3d59f9972a1214f8effa0c54c4f8ff4dcf020913c0a5e27c62a2646970667358221220e3f74784dff708aeaae2316573eb0e8e2857ed14c0981f1aa24c3aa4d07f46b964736f6c634300081c0033",
  "linkReferences": {},
  "deployedLinkReferences": {}
}